{
  "contractName": "App",
  "abi": [
    {
      "constant": true,
      "inputs": [],
      "name": "m_appPrice",
      "outputs": [
        {
          "name": "",
          "type": "uint256"
        }
      ],
      "payable": false,
      "stateMutability": "view",
      "type": "function"
    },
    {
      "constant": true,
      "inputs": [],
      "name": "m_appName",
      "outputs": [
        {
          "name": "",
          "type": "string"
        }
      ],
      "payable": false,
      "stateMutability": "view",
      "type": "function"
    },
    {
      "constant": true,
      "inputs": [],
      "name": "m_appParams",
      "outputs": [
        {
          "name": "",
          "type": "string"
        }
      ],
      "payable": false,
      "stateMutability": "view",
      "type": "function"
    },
    {
      "constant": true,
      "inputs": [],
      "name": "m_owner",
      "outputs": [
        {
          "name": "",
          "type": "address"
        }
      ],
      "payable": false,
      "stateMutability": "view",
      "type": "function"
    },
    {
      "constant": false,
      "inputs": [
        {
          "name": "_newOwner",
          "type": "address"
        }
      ],
      "name": "transferOwnership",
      "outputs": [],
      "payable": false,
      "stateMutability": "nonpayable",
      "type": "function"
    },
    {
      "inputs": [
        {
          "name": "_iexecHubAddress",
          "type": "address"
        },
        {
          "name": "_appName",
          "type": "string"
        },
        {
          "name": "_appPrice",
          "type": "uint256"
        },
        {
          "name": "_appParams",
          "type": "string"
        }
      ],
      "payable": false,
      "stateMutability": "nonpayable",
      "type": "constructor"
    },
    {
      "anonymous": false,
      "inputs": [
        {
          "indexed": true,
          "name": "previousOwner",
          "type": "address"
        },
        {
          "indexed": true,
          "name": "newOwner",
          "type": "address"
        }
      ],
      "name": "OwnershipTransferred",
      "type": "event"
    }
  ],
  "bytecode": "0x608060405234801561001057600080fd5b506040516105793803806105798339810160409081528151602083015191830151606084015160008054600160a060020a03191633600160a060020a0390811691909117909155929493840193919291019084908116151561007157600080fd5b60018054600160a060020a03928316600160a060020a031991821681179092556002805490911690911790553281163390911614156100af57600080fd5b6100c1326401000000006100f7810204565b82516100d4906003906020860190610182565b50600482905580516100ed906005906020840190610182565b505050505061021d565b60005433600160a060020a0390811691161461011257600080fd5b600160a060020a038116151561012757600080fd5b60008054604051600160a060020a03808516939216917f8be0079c531659141344cd1fd0a4f28419497f9722a3daafe3b4186f6b6457e091a360008054600160a060020a031916600160a060020a0392909216919091179055565b828054600181600116156101000203166002900490600052602060002090601f016020900481019282601f106101c357805160ff19168380011785556101f0565b828001600101855582156101f0579182015b828111156101f05782518255916020019190600101906101d5565b506101fc929150610200565b5090565b61021a91905b808211156101fc5760008155600101610206565b90565b61034d8061022c6000396000f30060806040526004361061006c5763ffffffff7c010000000000000000000000000000000000000000000000000000000060003504166326137e6b8114610071578063358982a31461009857806388fc56c014610122578063deff41c114610137578063f2fde38b14610168575b600080fd5b34801561007d57600080fd5b5061008661018b565b60408051918252519081900360200190f35b3480156100a457600080fd5b506100ad610191565b6040805160208082528351818301528351919283929083019185019080838360005b838110156100e75781810151838201526020016100cf565b50505050905090810190601f1680156101145780820380516001836020036101000a031916815260200191505b509250505060405180910390f35b34801561012e57600080fd5b506100ad61021f565b34801561014357600080fd5b5061014c61027a565b60408051600160a060020a039092168252519081900360200190f35b34801561017457600080fd5b50610189600160a060020a0360043516610289565b005b60045481565b6003805460408051602060026001851615610100026000190190941693909304601f810184900484028201840190925281815292918301828280156102175780601f106101ec57610100808354040283529160200191610217565b820191906000526020600020905b8154815290600101906020018083116101fa57829003601f168201915b505050505081565b6005805460408051602060026001851615610100026000190190941693909304601f810184900484028201840190925281815292918301828280156102175780601f106101ec57610100808354040283529160200191610217565b600054600160a060020a031681565b60005433600160a060020a039081169116146102a457600080fd5b600160a060020a03811615156102b957600080fd5b60008054604051600160a060020a03808516939216917f8be0079c531659141344cd1fd0a4f28419497f9722a3daafe3b4186f6b6457e091a36000805473ffffffffffffffffffffffffffffffffffffffff1916600160a060020a03929092169190911790555600a165627a7a723058207ed9b0321994be6abbc9c533b5b1e87a839880f5ad584bde9c7bf6bce645791f0029",
  "source": "pragma solidity ^0.4.21;\n\nimport './OwnableOZ.sol';\nimport './IexecHubAccessor.sol';\n\ncontract App is OwnableOZ, IexecHubAccessor\n{\n\n\t/**\n\t * Members\n\t */\n\tstring        public m_appName;\n\tuint256       public m_appPrice;\n\tstring        public m_appParams;\n\n\t/**\n\t * Constructor\n\t */\n\tfunction App(\n\t\taddress _iexecHubAddress,\n\t\tstring  _appName,\n\t\tuint256 _appPrice,\n\t\tstring  _appParams)\n\tIexecHubAccessor(_iexecHubAddress)\n\tpublic\n\t{\n\t\t// tx.origin == owner\n\t\t// msg.sender == DatasetHub\n\t\trequire(tx.origin != msg.sender);\n\t\ttransferOwnership(tx.origin); // owner → tx.origin\n\n\t\tm_appName   = _appName;\n\t\tm_appPrice  = _appPrice;\n\t\tm_appParams = _appParams;\n\n\t}\n\n\n\n}\n",
  "sourcePath": "/home/victor/code/github.com/iExecBlockchainComputing/PoCo/contracts/App.sol",
  "compiler": {
    "name": "solc",
    "version": "0.4.23+commit.124ca40d.Emscripten.clang"
  },
  "schemaVersion": "2.0.0",
  "updatedAt": "2018-04-30T15:30:34.671Z"
}