{
  "contractName": "IexecAPI",
  "abi": [
    {
      "constant": true,
      "inputs": [],
      "name": "m_owner",
      "outputs": [
        {
          "name": "",
          "type": "address"
        }
      ],
      "payable": false,
      "stateMutability": "view",
      "type": "function"
    },
    {
      "constant": false,
      "inputs": [
        {
          "name": "_newOwner",
          "type": "address"
        }
      ],
      "name": "transferOwnership",
      "outputs": [],
      "payable": false,
      "stateMutability": "nonpayable",
      "type": "function"
    },
    {
      "inputs": [
        {
          "name": "_iexecHubAddress",
          "type": "address"
        }
      ],
      "payable": false,
      "stateMutability": "nonpayable",
      "type": "constructor"
    },
    {
      "anonymous": false,
      "inputs": [
        {
          "indexed": false,
          "name": "woid",
          "type": "address"
        }
      ],
      "name": "WorkOrder",
      "type": "event"
    },
    {
      "anonymous": false,
      "inputs": [
        {
          "indexed": false,
          "name": "to",
          "type": "address"
        },
        {
          "indexed": false,
          "name": "amount",
          "type": "uint256"
        }
      ],
      "name": "WithdrawRLCFromIexecAPI",
      "type": "event"
    },
    {
      "anonymous": false,
      "inputs": [
        {
          "indexed": false,
          "name": "iexecHub",
          "type": "address"
        },
        {
          "indexed": false,
          "name": "amount",
          "type": "uint256"
        }
      ],
      "name": "ApproveIexecHub",
      "type": "event"
    },
    {
      "anonymous": false,
      "inputs": [
        {
          "indexed": false,
          "name": "iexecHub",
          "type": "address"
        },
        {
          "indexed": false,
          "name": "amount",
          "type": "uint256"
        }
      ],
      "name": "DepositRLCOnIexecHub",
      "type": "event"
    },
    {
      "anonymous": false,
      "inputs": [
        {
          "indexed": false,
          "name": "iexecHub",
          "type": "address"
        },
        {
          "indexed": false,
          "name": "amount",
          "type": "uint256"
        }
      ],
      "name": "WithdrawRLCFromIexecHub",
      "type": "event"
    },
    {
      "anonymous": false,
      "inputs": [
        {
          "indexed": false,
          "name": "woid",
          "type": "address"
        },
        {
          "indexed": false,
          "name": "stdout",
          "type": "string"
        },
        {
          "indexed": false,
          "name": "stderr",
          "type": "string"
        },
        {
          "indexed": false,
          "name": "uri",
          "type": "string"
        }
      ],
      "name": "WorkOrderCallback",
      "type": "event"
    },
    {
      "anonymous": false,
      "inputs": [
        {
          "indexed": true,
          "name": "previousOwner",
          "type": "address"
        },
        {
          "indexed": true,
          "name": "newOwner",
          "type": "address"
        }
      ],
      "name": "OwnershipTransferred",
      "type": "event"
    },
    {
      "constant": false,
      "inputs": [
        {
          "name": "_marketorderIdx",
          "type": "uint256"
        },
        {
          "name": "_workerpool",
          "type": "address"
        },
        {
          "name": "_app",
          "type": "address"
        },
        {
          "name": "_dataset",
          "type": "address"
        },
        {
          "name": "_params",
          "type": "string"
        },
        {
          "name": "_callback",
          "type": "address"
        },
        {
          "name": "_beneficiary",
          "type": "address"
        }
      ],
      "name": "buyForWorkOrder",
      "outputs": [],
      "payable": false,
      "stateMutability": "nonpayable",
      "type": "function"
    },
    {
      "constant": false,
      "inputs": [
        {
          "name": "_woid",
          "type": "address"
        },
        {
          "name": "_stdout",
          "type": "string"
        },
        {
          "name": "_stderr",
          "type": "string"
        },
        {
          "name": "_uri",
          "type": "string"
        }
      ],
      "name": "workOrderCallback",
      "outputs": [
        {
          "name": "",
          "type": "bool"
        }
      ],
      "payable": false,
      "stateMutability": "nonpayable",
      "type": "function"
    },
    {
      "constant": false,
      "inputs": [
        {
          "name": "amount",
          "type": "uint256"
        }
      ],
      "name": "approveIexecHub",
      "outputs": [
        {
          "name": "",
          "type": "bool"
        }
      ],
      "payable": false,
      "stateMutability": "nonpayable",
      "type": "function"
    },
    {
      "constant": false,
      "inputs": [
        {
          "name": "amount",
          "type": "uint256"
        }
      ],
      "name": "withdrawRLCFromIexecAPI",
      "outputs": [
        {
          "name": "",
          "type": "bool"
        }
      ],
      "payable": false,
      "stateMutability": "nonpayable",
      "type": "function"
    },
    {
      "constant": false,
      "inputs": [
        {
          "name": "amount",
          "type": "uint256"
        }
      ],
      "name": "depositRLCOnIexecHub",
      "outputs": [
        {
          "name": "",
          "type": "bool"
        }
      ],
      "payable": false,
      "stateMutability": "nonpayable",
      "type": "function"
    },
    {
      "constant": false,
      "inputs": [
        {
          "name": "amount",
          "type": "uint256"
        }
      ],
      "name": "withdrawRLCFromIexecHub",
      "outputs": [
        {
          "name": "",
          "type": "bool"
        }
      ],
      "payable": false,
      "stateMutability": "nonpayable",
      "type": "function"
    }
  ],
  "bytecode": "0x608060405234801561001057600080fd5b50604051602080610ccf833981016040525160008054600160a060020a03191633600160a060020a039081169190911790915581908116151561005257600080fd5b60018054600160a060020a03909216600160a060020a031992831681179091556002805490921617905550610c438061008c6000396000f3006080604052600436106100745763ffffffff60e060020a6000350416634c0f53428114610079578063514d7067146100a5578063536e28001461018857806356af48ca1461021a57806379117b2e14610232578063a56620f71461024a578063deff41c114610262578063f2fde38b14610293575b600080fd5b34801561008557600080fd5b506100916004356102b4565b604080519115158252519081900360200190f35b3480156100b157600080fd5b5060408051602060046024803582810135601f8101859004850286018501909652858552610091958335600160a060020a031695369560449491939091019190819084018382808284375050604080516020601f89358b018035918201839004830284018301909452808352979a99988101979196509182019450925082915084018382808284375050604080516020601f89358b018035918201839004830284018301909452808352979a99988101979196509182019450925082915084018382808284375094975061044a9650505050505050565b34801561019457600080fd5b50604080516020600460843581810135601f81018490048402850184019095528484526102189482359460248035600160a060020a0390811696604435821696606435909216953695929460a4949093910191819084018382808284375094975050600160a060020a0385358116965060209095013590941693506105f892505050565b005b34801561022657600080fd5b506100916004356107ba565b34801561023e57600080fd5b506100916004356108c3565b34801561025657600080fd5b506100916004356109e0565b34801561026e57600080fd5b50610277610b70565b60408051600160a060020a039092168252519081900360200190f35b34801561029f57600080fd5b50610218600160a060020a0360043516610b7f565b60008054819033600160a060020a039081169116146102d257600080fd5b600260009054906101000a9004600160a060020a0316600160a060020a031663e73333436040518163ffffffff1660e060020a028152600401602060405180830381600087803b15801561032557600080fd5b505af1158015610339573d6000803e3d6000fd5b505050506040513d602081101561034f57600080fd5b5051600154604080517f095ea7b3000000000000000000000000000000000000000000000000000000008152600160a060020a0392831660048201526024810187905290519293509083169163095ea7b3916044808201926020929091908290030181600087803b1580156103c357600080fd5b505af11580156103d7573d6000803e3d6000fd5b505050506040513d60208110156103ed57600080fd5b505115156103fa57600080fd5b60015460408051600160a060020a0390921682526020820185905280517f5e9a23944fb3d019925ad84f8e1696436c1c7229787674a8ef8e08c776050df59281900390910190a150600192915050565b600084600160a060020a031633600160a060020a031614151561046c57600080fd5b7f708463eccdafadafbe7022c0f4909af2e585cd08c63eaefa786159e156227e37858585856040518085600160a060020a0316600160a060020a03168152602001806020018060200180602001848103845287818151815260200191508051906020019080838360005b838110156104ee5781810151838201526020016104d6565b50505050905090810190601f16801561051b5780820380516001836020036101000a031916815260200191505b50848103835286518152865160209182019188019080838360005b8381101561054e578181015183820152602001610536565b50505050905090810190601f16801561057b5780820380516001836020036101000a031916815260200191505b50848103825285518152855160209182019187019080838360005b838110156105ae578181015183820152602001610596565b50505050905090810190601f1680156105db5780820380516001836020036101000a031916815260200191505b5097505050505050505060405180910390a1506001949350505050565b6000600260009054906101000a9004600160a060020a0316600160a060020a031663536e2800898989898989896040518863ffffffff1660e060020a0281526004018088815260200187600160a060020a0316600160a060020a0316815260200186600160a060020a0316600160a060020a0316815260200185600160a060020a0316600160a060020a031681526020018060200184600160a060020a0316600160a060020a0316815260200183600160a060020a0316600160a060020a03168152602001828103825285818151815260200191508051906020019080838360005b838110156106f25781810151838201526020016106da565b50505050905090810190601f16801561071f5780820380516001836020036101000a031916815260200191505b5098505050505050505050602060405180830381600087803b15801561074457600080fd5b505af1158015610758573d6000803e3d6000fd5b505050506040513d602081101561076e57600080fd5b505160408051600160a060020a038316815290519192507f6390dedee0bf0cde258f2f3d4d4b5ec3a03d5bbad3850033ae166acb369f0653919081900360200190a15050505050505050565b6000805433600160a060020a039081169116146107d657600080fd5b600254604080517fb6b55f25000000000000000000000000000000000000000000000000000000008152600481018590529051600160a060020a039092169163b6b55f25916024808201926020929091908290030181600087803b15801561083d57600080fd5b505af1158015610851573d6000803e3d6000fd5b505050506040513d602081101561086757600080fd5b5051151561087457600080fd5b60015460408051600160a060020a0390921682526020820184905280517fbaa053b1e17bc83190da4939238743339cd734d83d7413a6d3c117df790dd1a59281900390910190a1506001919050565b6000805433600160a060020a039081169116146108df57600080fd5b600254604080517f2e1a7d4d000000000000000000000000000000000000000000000000000000008152600481018590529051600160a060020a0390921691632e1a7d4d916024808201926020929091908290030181600087803b15801561094657600080fd5b505af115801561095a573d6000803e3d6000fd5b505050506040513d602081101561097057600080fd5b5051151561097d57600080fd5b610986826109e0565b151561099157600080fd5b60015460408051600160a060020a0390921682526020820184905280517f2114edfbc766dd13ecebe139c59b657991c87b94518361feb5db86f05b0570f19281900390910190a1506001919050565b60008054819033600160a060020a039081169116146109fe57600080fd5b600260009054906101000a9004600160a060020a0316600160a060020a031663e73333436040518163ffffffff1660e060020a028152600401602060405180830381600087803b158015610a5157600080fd5b505af1158015610a65573d6000803e3d6000fd5b505050506040513d6020811015610a7b57600080fd5b5051604080517fa9059cbb000000000000000000000000000000000000000000000000000000008152600160a060020a0333811660048301526024820187905291519293509083169163a9059cbb916044808201926020929091908290030181600087803b158015610aec57600080fd5b505af1158015610b00573d6000803e3d6000fd5b505050506040513d6020811015610b1657600080fd5b50511515610b2357600080fd5b60408051600160a060020a03331681526020810185905281517f3cab9babe8fba8f5cfad7cac37057781ced585f6af63c4e64aedbb12a5c96d99929181900390910190a150600192915050565b600054600160a060020a031681565b60005433600160a060020a03908116911614610b9a57600080fd5b600160a060020a0381161515610baf57600080fd5b60008054604051600160a060020a03808516939216917f8be0079c531659141344cd1fd0a4f28419497f9722a3daafe3b4186f6b6457e091a36000805473ffffffffffffffffffffffffffffffffffffffff1916600160a060020a03929092169190911790555600a165627a7a72305820d93e4eca1ea7d626465933536327acf09d30ae9d1aec6525f801a7e39e529ea80029",
  "source": "pragma solidity ^0.4.21;\nimport './OwnableOZ.sol';\nimport './IexecHubAccessor.sol';\nimport './IexecCallbackInterface.sol';\nimport \"rlc-faucet-contract/contracts/RLC.sol\";\n\n\ncontract IexecAPI is OwnableOZ, IexecHubAccessor, IexecCallbackInterface\n{\n\tevent WorkOrder              (address woid);\n\tevent WithdrawRLCFromIexecAPI(address to,       uint256 amount);\n\tevent ApproveIexecHub        (address iexecHub, uint256 amount);\n\tevent DepositRLCOnIexecHub   (address iexecHub, uint256 amount);\n\tevent WithdrawRLCFromIexecHub(address iexecHub, uint256 amount);\n\n\t// Constructor\n\tfunction IexecAPI(address _iexecHubAddress)\n\tIexecHubAccessor(_iexecHubAddress)\n\tpublic\n\t{\n\n\t}\n\n\tfunction buyForWorkOrder(\n\t\tuint256 _marketorderIdx,\n\t\taddress _workerpool,\n\t\taddress _app,\n\t\taddress _dataset,\n\t\tstring  _params,\n\t\taddress _callback,\n\t\taddress _beneficiary)\n\tpublic\n\t{\n\t\taddress woid = iexecHubInterface.buyForWorkOrder(_marketorderIdx, _workerpool, _app, _dataset, _params, _callback, _beneficiary);\n\t\temit WorkOrder(woid);\n\t}\n\n\tfunction workOrderCallback(\n\t\taddress _woid,\n\t\tstring  _stdout,\n\t\tstring  _stderr,\n\t\tstring  _uri)\n\tpublic returns (bool)\n\t{\n\t\trequire(msg.sender == _woid);\n\t\temit WorkOrderCallback(_woid, _stdout, _stderr, _uri);\n\t\treturn true;\n\t}\n\n\tfunction approveIexecHub(uint256 amount) public onlyOwner returns (bool)\n\t{\n\t\tRLC rlc = RLC(iexecHubInterface.getRLCAddress());\n\t\trequire(rlc.approve(iexecHubAddress, amount));\n\t\temit ApproveIexecHub(iexecHubAddress, amount);\n\t\treturn true;\n\t}\n\n\tfunction withdrawRLCFromIexecAPI(uint256 amount) public onlyOwner returns (bool)\n\t{\n\t\tRLC rlc = RLC(iexecHubInterface.getRLCAddress());\n\t\trequire(rlc.transfer(msg.sender, amount));\n\t\temit WithdrawRLCFromIexecAPI(msg.sender, amount);\n\t\treturn true;\n\t}\n\n\tfunction depositRLCOnIexecHub(uint256 amount) public onlyOwner returns (bool)\n\t{\n\t\trequire(iexecHubInterface.deposit(amount));\n\t\temit DepositRLCOnIexecHub(iexecHubAddress, amount);\n\t\treturn true;\n\t}\n\n\tfunction withdrawRLCFromIexecHub(uint256 amount) public onlyOwner returns (bool)\n\t{\n\t\trequire(iexecHubInterface.withdraw(amount));\n\t\trequire(withdrawRLCFromIexecAPI(amount));\n\t\temit WithdrawRLCFromIexecHub(iexecHubAddress, amount);\n\t\treturn true;\n\t}\n\n\n\n}\n",
  "sourcePath": "/home/victor/code/github.com/iExecBlockchainComputing/PoCo/contracts/IexecAPI.sol",
  "compiler": {
    "name": "solc",
    "version": "0.4.23+commit.124ca40d.Emscripten.clang"
  },
  "schemaVersion": "2.0.0",
  "updatedAt": "2018-04-30T15:30:34.677Z"
}