{
  "contractName": "IexecHub",
  "abi": [
    {
      "constant": true,
      "inputs": [],
      "name": "m_contributionHistory",
      "outputs": [
        {
          "name": "success",
          "type": "uint256"
        },
        {
          "name": "failled",
          "type": "uint256"
        }
      ],
      "payable": false,
      "stateMutability": "view",
      "type": "function"
    },
    {
      "constant": true,
      "inputs": [],
      "name": "appHub",
      "outputs": [
        {
          "name": "",
          "type": "address"
        }
      ],
      "payable": false,
      "stateMutability": "view",
      "type": "function"
    },
    {
      "constant": true,
      "inputs": [],
      "name": "STAKE_BONUS_MIN_THRESHOLD",
      "outputs": [
        {
          "name": "",
          "type": "uint256"
        }
      ],
      "payable": false,
      "stateMutability": "view",
      "type": "function"
    },
    {
      "constant": true,
      "inputs": [
        {
          "name": "",
          "type": "address"
        }
      ],
      "name": "m_scores",
      "outputs": [
        {
          "name": "",
          "type": "uint256"
        }
      ],
      "payable": false,
      "stateMutability": "view",
      "type": "function"
    },
    {
      "constant": true,
      "inputs": [],
      "name": "workerPoolHub",
      "outputs": [
        {
          "name": "",
          "type": "address"
        }
      ],
      "payable": false,
      "stateMutability": "view",
      "type": "function"
    },
    {
      "constant": true,
      "inputs": [],
      "name": "SCORE_UNITARY_SLASH",
      "outputs": [
        {
          "name": "",
          "type": "uint256"
        }
      ],
      "payable": false,
      "stateMutability": "view",
      "type": "function"
    },
    {
      "constant": true,
      "inputs": [],
      "name": "STAKE_BONUS_RATIO",
      "outputs": [
        {
          "name": "",
          "type": "uint256"
        }
      ],
      "payable": false,
      "stateMutability": "view",
      "type": "function"
    },
    {
      "constant": true,
      "inputs": [],
      "name": "tokenAddress",
      "outputs": [
        {
          "name": "",
          "type": "address"
        }
      ],
      "payable": false,
      "stateMutability": "view",
      "type": "function"
    },
    {
      "constant": true,
      "inputs": [],
      "name": "m_categoriesCount",
      "outputs": [
        {
          "name": "",
          "type": "uint256"
        }
      ],
      "payable": false,
      "stateMutability": "view",
      "type": "function"
    },
    {
      "constant": true,
      "inputs": [],
      "name": "rlc",
      "outputs": [
        {
          "name": "",
          "type": "address"
        }
      ],
      "payable": false,
      "stateMutability": "view",
      "type": "function"
    },
    {
      "constant": true,
      "inputs": [],
      "name": "m_categoriesCreator",
      "outputs": [
        {
          "name": "",
          "type": "address"
        }
      ],
      "payable": false,
      "stateMutability": "view",
      "type": "function"
    },
    {
      "constant": true,
      "inputs": [],
      "name": "datasetHub",
      "outputs": [
        {
          "name": "",
          "type": "address"
        }
      ],
      "payable": false,
      "stateMutability": "view",
      "type": "function"
    },
    {
      "constant": true,
      "inputs": [
        {
          "name": "",
          "type": "address"
        }
      ],
      "name": "m_accounts",
      "outputs": [
        {
          "name": "stake",
          "type": "uint256"
        },
        {
          "name": "locked",
          "type": "uint256"
        }
      ],
      "payable": false,
      "stateMutability": "view",
      "type": "function"
    },
    {
      "constant": true,
      "inputs": [],
      "name": "marketplaceAddress",
      "outputs": [
        {
          "name": "",
          "type": "address"
        }
      ],
      "payable": false,
      "stateMutability": "view",
      "type": "function"
    },
    {
      "constant": true,
      "inputs": [
        {
          "name": "",
          "type": "uint256"
        }
      ],
      "name": "m_categories",
      "outputs": [
        {
          "name": "catid",
          "type": "uint256"
        },
        {
          "name": "name",
          "type": "string"
        },
        {
          "name": "description",
          "type": "string"
        },
        {
          "name": "workClockTimeRef",
          "type": "uint256"
        }
      ],
      "payable": false,
      "stateMutability": "view",
      "type": "function"
    },
    {
      "inputs": [],
      "payable": false,
      "stateMutability": "nonpayable",
      "type": "constructor"
    },
    {
      "anonymous": false,
      "inputs": [
        {
          "indexed": false,
          "name": "woid",
          "type": "address"
        },
        {
          "indexed": true,
          "name": "workerPool",
          "type": "address"
        }
      ],
      "name": "WorkOrderActivated",
      "type": "event"
    },
    {
      "anonymous": false,
      "inputs": [
        {
          "indexed": false,
          "name": "woid",
          "type": "address"
        },
        {
          "indexed": false,
          "name": "workerPool",
          "type": "address"
        }
      ],
      "name": "WorkOrderClaimed",
      "type": "event"
    },
    {
      "anonymous": false,
      "inputs": [
        {
          "indexed": false,
          "name": "woid",
          "type": "address"
        },
        {
          "indexed": false,
          "name": "workerPool",
          "type": "address"
        }
      ],
      "name": "WorkOrderCompleted",
      "type": "event"
    },
    {
      "anonymous": false,
      "inputs": [
        {
          "indexed": true,
          "name": "appOwner",
          "type": "address"
        },
        {
          "indexed": true,
          "name": "app",
          "type": "address"
        },
        {
          "indexed": false,
          "name": "appName",
          "type": "string"
        },
        {
          "indexed": false,
          "name": "appPrice",
          "type": "uint256"
        },
        {
          "indexed": false,
          "name": "appParams",
          "type": "string"
        }
      ],
      "name": "CreateApp",
      "type": "event"
    },
    {
      "anonymous": false,
      "inputs": [
        {
          "indexed": true,
          "name": "datasetOwner",
          "type": "address"
        },
        {
          "indexed": true,
          "name": "dataset",
          "type": "address"
        },
        {
          "indexed": false,
          "name": "datasetName",
          "type": "string"
        },
        {
          "indexed": false,
          "name": "datasetPrice",
          "type": "uint256"
        },
        {
          "indexed": false,
          "name": "datasetParams",
          "type": "string"
        }
      ],
      "name": "CreateDataset",
      "type": "event"
    },
    {
      "anonymous": false,
      "inputs": [
        {
          "indexed": true,
          "name": "workerPoolOwner",
          "type": "address"
        },
        {
          "indexed": true,
          "name": "workerPool",
          "type": "address"
        },
        {
          "indexed": false,
          "name": "workerPoolDescription",
          "type": "string"
        }
      ],
      "name": "CreateWorkerPool",
      "type": "event"
    },
    {
      "anonymous": false,
      "inputs": [
        {
          "indexed": false,
          "name": "catid",
          "type": "uint256"
        },
        {
          "indexed": false,
          "name": "name",
          "type": "string"
        },
        {
          "indexed": false,
          "name": "description",
          "type": "string"
        },
        {
          "indexed": false,
          "name": "workClockTimeRef",
          "type": "uint256"
        }
      ],
      "name": "CreateCategory",
      "type": "event"
    },
    {
      "anonymous": false,
      "inputs": [
        {
          "indexed": true,
          "name": "workerPool",
          "type": "address"
        },
        {
          "indexed": false,
          "name": "worker",
          "type": "address"
        }
      ],
      "name": "WorkerPoolSubscription",
      "type": "event"
    },
    {
      "anonymous": false,
      "inputs": [
        {
          "indexed": true,
          "name": "workerPool",
          "type": "address"
        },
        {
          "indexed": false,
          "name": "worker",
          "type": "address"
        }
      ],
      "name": "WorkerPoolUnsubscription",
      "type": "event"
    },
    {
      "anonymous": false,
      "inputs": [
        {
          "indexed": true,
          "name": "workerPool",
          "type": "address"
        },
        {
          "indexed": false,
          "name": "worker",
          "type": "address"
        }
      ],
      "name": "WorkerPoolEviction",
      "type": "event"
    },
    {
      "anonymous": false,
      "inputs": [
        {
          "indexed": false,
          "name": "woid",
          "type": "address"
        },
        {
          "indexed": true,
          "name": "worker",
          "type": "address"
        }
      ],
      "name": "AccurateContribution",
      "type": "event"
    },
    {
      "anonymous": false,
      "inputs": [
        {
          "indexed": false,
          "name": "woid",
          "type": "address"
        },
        {
          "indexed": true,
          "name": "worker",
          "type": "address"
        }
      ],
      "name": "FaultyContribution",
      "type": "event"
    },
    {
      "anonymous": false,
      "inputs": [
        {
          "indexed": false,
          "name": "owner",
          "type": "address"
        },
        {
          "indexed": false,
          "name": "amount",
          "type": "uint256"
        }
      ],
      "name": "Deposit",
      "type": "event"
    },
    {
      "anonymous": false,
      "inputs": [
        {
          "indexed": false,
          "name": "owner",
          "type": "address"
        },
        {
          "indexed": false,
          "name": "amount",
          "type": "uint256"
        }
      ],
      "name": "Withdraw",
      "type": "event"
    },
    {
      "anonymous": false,
      "inputs": [
        {
          "indexed": false,
          "name": "user",
          "type": "address"
        },
        {
          "indexed": false,
          "name": "amount",
          "type": "uint256"
        }
      ],
      "name": "Reward",
      "type": "event"
    },
    {
      "anonymous": false,
      "inputs": [
        {
          "indexed": false,
          "name": "user",
          "type": "address"
        },
        {
          "indexed": false,
          "name": "amount",
          "type": "uint256"
        }
      ],
      "name": "Seize",
      "type": "event"
    },
    {
      "constant": false,
      "inputs": [
        {
          "name": "_tokenAddress",
          "type": "address"
        },
        {
          "name": "_marketplaceAddress",
          "type": "address"
        },
        {
          "name": "_workerPoolHubAddress",
          "type": "address"
        },
        {
          "name": "_appHubAddress",
          "type": "address"
        },
        {
          "name": "_datasetHubAddress",
          "type": "address"
        }
      ],
      "name": "attachContracts",
      "outputs": [],
      "payable": false,
      "stateMutability": "nonpayable",
      "type": "function"
    },
    {
      "constant": false,
      "inputs": [
        {
          "name": "_categoriesCreator",
          "type": "address"
        }
      ],
      "name": "setCategoriesCreator",
      "outputs": [],
      "payable": false,
      "stateMutability": "nonpayable",
      "type": "function"
    },
    {
      "constant": false,
      "inputs": [
        {
          "name": "_name",
          "type": "string"
        },
        {
          "name": "_description",
          "type": "string"
        },
        {
          "name": "_workClockTimeRef",
          "type": "uint256"
        }
      ],
      "name": "createCategory",
      "outputs": [
        {
          "name": "catid",
          "type": "uint256"
        }
      ],
      "payable": false,
      "stateMutability": "nonpayable",
      "type": "function"
    },
    {
      "constant": false,
      "inputs": [
        {
          "name": "_description",
          "type": "string"
        },
        {
          "name": "_subscriptionLockStakePolicy",
          "type": "uint256"
        },
        {
          "name": "_subscriptionMinimumStakePolicy",
          "type": "uint256"
        },
        {
          "name": "_subscriptionMinimumScorePolicy",
          "type": "uint256"
        }
      ],
      "name": "createWorkerPool",
      "outputs": [
        {
          "name": "createdWorkerPool",
          "type": "address"
        }
      ],
      "payable": false,
      "stateMutability": "nonpayable",
      "type": "function"
    },
    {
      "constant": false,
      "inputs": [
        {
          "name": "_appName",
          "type": "string"
        },
        {
          "name": "_appPrice",
          "type": "uint256"
        },
        {
          "name": "_appParams",
          "type": "string"
        }
      ],
      "name": "createApp",
      "outputs": [
        {
          "name": "createdApp",
          "type": "address"
        }
      ],
      "payable": false,
      "stateMutability": "nonpayable",
      "type": "function"
    },
    {
      "constant": false,
      "inputs": [
        {
          "name": "_datasetName",
          "type": "string"
        },
        {
          "name": "_datasetPrice",
          "type": "uint256"
        },
        {
          "name": "_datasetParams",
          "type": "string"
        }
      ],
      "name": "createDataset",
      "outputs": [
        {
          "name": "createdDataset",
          "type": "address"
        }
      ],
      "payable": false,
      "stateMutability": "nonpayable",
      "type": "function"
    },
    {
      "constant": false,
      "inputs": [
        {
          "name": "_marketorderIdx",
          "type": "uint256"
        },
        {
          "name": "_workerpool",
          "type": "address"
        },
        {
          "name": "_app",
          "type": "address"
        },
        {
          "name": "_dataset",
          "type": "address"
        },
        {
          "name": "_params",
          "type": "string"
        },
        {
          "name": "_callback",
          "type": "address"
        },
        {
          "name": "_beneficiary",
          "type": "address"
        }
      ],
      "name": "buyForWorkOrder",
      "outputs": [
        {
          "name": "",
          "type": "address"
        }
      ],
      "payable": false,
      "stateMutability": "nonpayable",
      "type": "function"
    },
    {
      "constant": false,
      "inputs": [
        {
          "name": "_woid",
          "type": "address"
        }
      ],
      "name": "claimFailedConsensus",
      "outputs": [
        {
          "name": "",
          "type": "bool"
        }
      ],
      "payable": false,
      "stateMutability": "nonpayable",
      "type": "function"
    },
    {
      "constant": false,
      "inputs": [
        {
          "name": "_woid",
          "type": "address"
        },
        {
          "name": "_stdout",
          "type": "string"
        },
        {
          "name": "_stderr",
          "type": "string"
        },
        {
          "name": "_uri",
          "type": "string"
        }
      ],
      "name": "finalizeWorkOrder",
      "outputs": [
        {
          "name": "",
          "type": "bool"
        }
      ],
      "payable": false,
      "stateMutability": "nonpayable",
      "type": "function"
    },
    {
      "constant": true,
      "inputs": [
        {
          "name": "_catId",
          "type": "uint256"
        }
      ],
      "name": "getCategoryWorkClockTimeRef",
      "outputs": [
        {
          "name": "workClockTimeRef",
          "type": "uint256"
        }
      ],
      "payable": false,
      "stateMutability": "view",
      "type": "function"
    },
    {
      "constant": true,
      "inputs": [
        {
          "name": "_catId",
          "type": "uint256"
        }
      ],
      "name": "existingCategory",
      "outputs": [
        {
          "name": "categoryExist",
          "type": "bool"
        }
      ],
      "payable": false,
      "stateMutability": "view",
      "type": "function"
    },
    {
      "constant": true,
      "inputs": [
        {
          "name": "_catId",
          "type": "uint256"
        }
      ],
      "name": "getCategory",
      "outputs": [
        {
          "name": "catid",
          "type": "uint256"
        },
        {
          "name": "name",
          "type": "string"
        },
        {
          "name": "description",
          "type": "string"
        },
        {
          "name": "workClockTimeRef",
          "type": "uint256"
        }
      ],
      "payable": false,
      "stateMutability": "view",
      "type": "function"
    },
    {
      "constant": true,
      "inputs": [],
      "name": "getRLCAddress",
      "outputs": [
        {
          "name": "rlcAddress",
          "type": "address"
        }
      ],
      "payable": false,
      "stateMutability": "view",
      "type": "function"
    },
    {
      "constant": true,
      "inputs": [
        {
          "name": "_worker",
          "type": "address"
        }
      ],
      "name": "getWorkerStatus",
      "outputs": [
        {
          "name": "workerPool",
          "type": "address"
        },
        {
          "name": "workerScore",
          "type": "uint256"
        }
      ],
      "payable": false,
      "stateMutability": "view",
      "type": "function"
    },
    {
      "constant": true,
      "inputs": [
        {
          "name": "_worker",
          "type": "address"
        }
      ],
      "name": "getWorkerScore",
      "outputs": [
        {
          "name": "workerScore",
          "type": "uint256"
        }
      ],
      "payable": false,
      "stateMutability": "view",
      "type": "function"
    },
    {
      "constant": false,
      "inputs": [
        {
          "name": "_worker",
          "type": "address"
        }
      ],
      "name": "registerToPool",
      "outputs": [
        {
          "name": "subscribed",
          "type": "bool"
        }
      ],
      "payable": false,
      "stateMutability": "nonpayable",
      "type": "function"
    },
    {
      "constant": false,
      "inputs": [
        {
          "name": "_worker",
          "type": "address"
        }
      ],
      "name": "unregisterFromPool",
      "outputs": [
        {
          "name": "unsubscribed",
          "type": "bool"
        }
      ],
      "payable": false,
      "stateMutability": "nonpayable",
      "type": "function"
    },
    {
      "constant": false,
      "inputs": [
        {
          "name": "_worker",
          "type": "address"
        }
      ],
      "name": "evictWorker",
      "outputs": [
        {
          "name": "unsubscribed",
          "type": "bool"
        }
      ],
      "payable": false,
      "stateMutability": "nonpayable",
      "type": "function"
    },
    {
      "constant": false,
      "inputs": [
        {
          "name": "_user",
          "type": "address"
        },
        {
          "name": "_amount",
          "type": "uint256"
        }
      ],
      "name": "lockForOrder",
      "outputs": [
        {
          "name": "",
          "type": "bool"
        }
      ],
      "payable": false,
      "stateMutability": "nonpayable",
      "type": "function"
    },
    {
      "constant": false,
      "inputs": [
        {
          "name": "_user",
          "type": "address"
        },
        {
          "name": "_amount",
          "type": "uint256"
        }
      ],
      "name": "unlockForOrder",
      "outputs": [
        {
          "name": "",
          "type": "bool"
        }
      ],
      "payable": false,
      "stateMutability": "nonpayable",
      "type": "function"
    },
    {
      "constant": false,
      "inputs": [
        {
          "name": "_woid",
          "type": "address"
        },
        {
          "name": "_user",
          "type": "address"
        },
        {
          "name": "_amount",
          "type": "uint256"
        }
      ],
      "name": "lockForWork",
      "outputs": [
        {
          "name": "",
          "type": "bool"
        }
      ],
      "payable": false,
      "stateMutability": "nonpayable",
      "type": "function"
    },
    {
      "constant": false,
      "inputs": [
        {
          "name": "_woid",
          "type": "address"
        },
        {
          "name": "_user",
          "type": "address"
        },
        {
          "name": "_amount",
          "type": "uint256"
        }
      ],
      "name": "unlockForWork",
      "outputs": [
        {
          "name": "",
          "type": "bool"
        }
      ],
      "payable": false,
      "stateMutability": "nonpayable",
      "type": "function"
    },
    {
      "constant": false,
      "inputs": [
        {
          "name": "_woid",
          "type": "address"
        },
        {
          "name": "_worker",
          "type": "address"
        },
        {
          "name": "_amount",
          "type": "uint256"
        },
        {
          "name": "_reputation",
          "type": "bool"
        }
      ],
      "name": "rewardForWork",
      "outputs": [
        {
          "name": "",
          "type": "bool"
        }
      ],
      "payable": false,
      "stateMutability": "nonpayable",
      "type": "function"
    },
    {
      "constant": false,
      "inputs": [
        {
          "name": "_woid",
          "type": "address"
        },
        {
          "name": "_worker",
          "type": "address"
        },
        {
          "name": "_amount",
          "type": "uint256"
        },
        {
          "name": "_reputation",
          "type": "bool"
        }
      ],
      "name": "seizeForWork",
      "outputs": [
        {
          "name": "",
          "type": "bool"
        }
      ],
      "payable": false,
      "stateMutability": "nonpayable",
      "type": "function"
    },
    {
      "constant": false,
      "inputs": [
        {
          "name": "_amount",
          "type": "uint256"
        }
      ],
      "name": "deposit",
      "outputs": [
        {
          "name": "",
          "type": "bool"
        }
      ],
      "payable": false,
      "stateMutability": "nonpayable",
      "type": "function"
    },
    {
      "constant": false,
      "inputs": [
        {
          "name": "_amount",
          "type": "uint256"
        }
      ],
      "name": "withdraw",
      "outputs": [
        {
          "name": "",
          "type": "bool"
        }
      ],
      "payable": false,
      "stateMutability": "nonpayable",
      "type": "function"
    },
    {
      "constant": true,
      "inputs": [
        {
          "name": "_owner",
          "type": "address"
        }
      ],
      "name": "checkBalance",
      "outputs": [
        {
          "name": "stake",
          "type": "uint256"
        },
        {
          "name": "locked",
          "type": "uint256"
        }
      ],
      "payable": false,
      "stateMutability": "view",
      "type": "function"
    }
  ],
  "bytecode": "0x608060405234801561001057600080fd5b50614bd5806100206000396000f300608060405260043610620002155763ffffffff60e060020a6000350416630800b89e81146200021a5780630c91f2d0146200024057806310793b5014620002865780631708d72514620002b75780631f87172614620002db578063234a0ee71462000308578063298503d9146200033c5780632e1a7d4d14620003d857806332baa8d914620003f357806339b73122146200040e5780634f73b8e61462000441578063536e280014620004595780635f51522614620004a557806366de5a4f14620004c957806369e99b5c14620004f65780636b4f6865146200051a5780636e885bd71462000547578063747bcd72146200055f578063817e83321462000577578063835436b4146200058f5780638981d07714620005b35780638986916314620005e05780638c0f8e1114620006045780639d76ea5814620006285780639fdf96251462000640578063a0efe2551462000672578063ac26109e146200068a578063b017c03614620006b1578063b218cf1514620006c9578063b6b55f2514620006ed578063b6b57ebd1462000708578063b6b8c3cd14620007ee578063b7b6e9781462000806578063bc04d77b146200082d578063be02ee6e1462000845578063daa17f491462000869578063e73333431462000881578063e760a11a1462000899578063eeeb2ba014620008d5578063f3052d2614620009e2578063f69f190c14620009fd578063fc06a8771462000a44575b600080fd5b3480156200022757600080fd5b506200023e600160a060020a036004351662000a77565b005b3480156200024d57600080fd5b5062000272600160a060020a0360043581169060243516604435606435151562000aef565b604080519115158252519081900360200190f35b3480156200029357600080fd5b506200029e62000c3f565b6040805192835260208301919091528051918290030190f35b348015620002c457600080fd5b5062000272600160a060020a036004351662000c48565b348015620002e857600080fd5b50620002f660043562000cad565b60408051918252519081900360200190f35b3480156200031557600080fd5b506200032062000cdc565b60408051600160a060020a039092168252519081900360200190f35b3480156200034957600080fd5b506040805160206004803580820135601f8101849004840285018401909552848452620002f694369492936024939284019190819084018382808284375050604080516020601f89358b018035918201839004830284018301909452808352979a999881019791965091820194509250829150840183828082843750949750509335945062000ceb9350505050565b348015620003e557600080fd5b506200027260043562000e99565b3480156200040057600080fd5b506200027260043562000fcd565b3480156200041b57600080fd5b506200032060246004803582810192908201359181359160443590810191013562000fe0565b3480156200044e57600080fd5b50620002f662001157565b3480156200046657600080fd5b50620003206004803590600160a060020a03602480358216926044358316926064358116926084359081019201359060a43581169060c435166200115d565b348015620004b257600080fd5b506200029e600160a060020a0360043516620013b7565b348015620004d657600080fd5b5062000320602460048035828101929101359035604435606435620013da565b3480156200050357600080fd5b50620002f6600160a060020a036004351662001529565b3480156200052757600080fd5b5062000272600160a060020a03600435811690602435166044356200153b565b3480156200055457600080fd5b5062000320620015ea565b3480156200056c57600080fd5b50620002f6620015f9565b3480156200058457600080fd5b50620002f6620015fe565b3480156200059c57600080fd5b5062000272600160a060020a036004351662001603565b348015620005c057600080fd5b5062000272600160a060020a036004358116906024351660443562001668565b348015620005ed57600080fd5b5062000272600160a060020a036004351662001701565b3480156200061157600080fd5b50620002f6600160a060020a036004351662001e8c565b3480156200063557600080fd5b506200032062001ea7565b3480156200064d57600080fd5b5062000272600160a060020a0360043581169060243516604435606435151562001eb6565b3480156200067f57600080fd5b50620002f662002030565b3480156200069757600080fd5b5062000272600160a060020a036004351660243562002036565b348015620006be57600080fd5b506200032062002076565b348015620006d657600080fd5b5062000272600160a060020a036004351662002085565b348015620006fa57600080fd5b5062000272600435620023d3565b3480156200071557600080fd5b5060408051602060046024803582810135601f810185900485028601850190965285855262000272958335600160a060020a031695369560449491939091019190819084018382808284375050604080516020601f89358b018035918201839004830284018301909452808352979a99988101979196509182019450925082915084018382808284375050604080516020601f89358b018035918201839004830284018301909452808352979a999881019791965091820194509250829150840183828082843750949750620025109650505050505050565b348015620007fb57600080fd5b506200032062003005565b3480156200081357600080fd5b5062000272600160a060020a036004351660243562003014565b3480156200083a57600080fd5b50620003206200303f565b3480156200085257600080fd5b506200029e600160a060020a03600435166200304e565b3480156200087657600080fd5b506200032062003067565b3480156200088e57600080fd5b506200032062003076565b348015620008a657600080fd5b506200023e600160a060020a036004358116906024358116906044358116906064358116906084351662003086565b348015620008e257600080fd5b50620008f060043562003120565b604051808581526020018060200180602001848152602001838103835286818151815260200191508051906020019080838360005b838110156200093f57818101518382015260200162000925565b50505050905090810190601f1680156200096d5780820380516001836020036101000a031916815260200191505b50838103825285518152855160209182019187019080838360005b83811015620009a257818101518382015260200162000988565b50505050905090810190601f168015620009d05780820380516001836020036101000a031916815260200191505b50965050505050505060405180910390f35b348015620009ef57600080fd5b50620008f060043562003267565b34801562000a0a57600080fd5b5062000a21600160a060020a0360043516620033d9565b60408051600160a060020a03909316835260208301919091528051918290030190f35b34801562000a5157600080fd5b506200032060246004803582810192908201359181359160443590810191013562003496565b600954600160a060020a0316158062000ab45750600954600160a060020a03161580159062000ab4575060095433600160a060020a039081169116145b151562000ac057600080fd5b6009805473ffffffffffffffffffffffffffffffffffffffff1916600160a060020a0392909216919091179055565b600033600160a060020a031685600160a060020a0316630690e5b86040518163ffffffff1660e060020a028152600401602060405180830381600087803b15801562000b3a57600080fd5b505af115801562000b4f573d6000803e3d6000fd5b505050506040513d602081101562000b6657600080fd5b5051600160a060020a03161462000b7c57600080fd5b62000b8884846200360d565b151562000b9457600080fd5b811562000c3457600c5462000bb190600163ffffffff6200369916565b600c55600160a060020a0384166000908152600b602052604090205462000be090600163ffffffff6200369916565b600160a060020a038086166000818152600b602090815260409182902094909455805192891683525190927f98b231d22df4a95e9d99b5d3f4d25fab5a821c22d7f517a522731c2892ed4535928290030190a25b506001949350505050565b600c54600d5482565b600062000c563383620036b4565b151562000c6257600080fd5b60408051600160a060020a03848116825291513392909216917f9644170e77fec17243f5fdc3519cba6d2162d1dda59af75508fd9a2005aeb7849181900360200190a2506001919050565b600062000cba8262000fcd565b151562000cc657600080fd5b5060009081526007602052604090206003015490565b600254600160a060020a031681565b600954600090819033600160a060020a0390811691161462000d0c57600080fd5b60085462000d2290600163ffffffff6200369916565b60088190556000818152600760209081526040909120918255865191925062000d5391600184019188019062003e01565b50835162000d6b906002830190602087019062003e01565b508281600301819055507f62bf08360c9d561749c54eaf4f8bf8cb6c8b6f4f40607bcec39a8172e714d25c600854868686604051808581526020018060200180602001848152602001838103835286818151815260200191508051906020019080838360005b8381101562000deb57818101518382015260200162000dd1565b50505050905090810190601f16801562000e195780820380516001836020036101000a031916815260200191505b50838103825285518152855160209182019187019080838360005b8381101562000e4e57818101518382015260200162000e34565b50505050905090810190601f16801562000e7c5780820380516001836020036101000a031916815260200191505b50965050505050505060405180910390a150506008549392505050565b600160a060020a0333166000908152600a602052604081205462000ec4908363ffffffff6200388e16565b600160a060020a033381166000818152600a6020908152604080832095909555815485517fa9059cbb0000000000000000000000000000000000000000000000000000000081526004810194909452602484018890529451949093169363a9059cbb936044808501949193918390030190829087803b15801562000f4757600080fd5b505af115801562000f5c573d6000803e3d6000fd5b505050506040513d602081101562000f7357600080fd5b5051151562000f8157600080fd5b60408051600160a060020a03331681526020810184905281517f884edad9ce6fa2440d8a54cc123490eb96d2768479d49ff9c7366125a9424364929181900390910190a1506001919050565b6000908152600760205260408120541190565b6003546040517f39b7312200000000000000000000000000000000000000000000000000000000815260248101859052606060048201908152606482018790526000928392600160a060020a03909116916339b73122918a918a918a918a918a919081906044810190608401888880828437909101848103835285815260200190508585808284378201915050975050505050505050602060405180830381600087803b1580156200109157600080fd5b505af1158015620010a6573d6000803e3d6000fd5b505050506040513d6020811015620010bd57600080fd5b5051604080516020810188905260608082528101899052919250600160a060020a038084169232909116917f49413c774d3fe9c92f6ada69299963d9b4b1c13a1f2a95a019188e2c161ed143918b918b918b918b918b918190810160808201888880828437909101848103835285815260200190508585808284376040519201829003995090975050505050505050a39695505050505050565b6103e881565b600554604080517f02a63c28000000000000000000000000000000000000000000000000000000008152600481018b9052600160a060020a033381811660248401528b82166044840152925160009485938493909116916302a63c289160648082019260209290919082900301818787803b158015620011dc57600080fd5b505af1158015620011f1573d6000803e3d6000fd5b505050506040513d60208110156200120857600080fd5b505115156200121657600080fd5b62001224838c8c8c620038a1565b91508b838b8b8e868d8d8d8d6200123a62003e86565b8a8152600160a060020a03808b16602083015289811660408301528881166060830152878116608083015260a0820187905283811660e0830152821661010082015261012060c08201818152908201859052610140820186868082843782019150509b505050505050505050505050604051809103906000f080158015620012c6573d6000803e3d6000fd5b5090508a600160a060020a0316637919233f828e6040518363ffffffff1660e060020a0281526004018083600160a060020a0316600160a060020a0316815260200182815260200192505050602060405180830381600087803b1580156200132d57600080fd5b505af115801562001342573d6000803e3d6000fd5b505050506040513d60208110156200135957600080fd5b505115156200136757600080fd5b60408051600160a060020a0383811682529151918d16917f359f2105b31d71ee8e2315c3dc3427b3f7297dcc85dd3883d4554e67f1f22d009181900360200190a29b9a5050505050505050505050565b600160a060020a03166000908152600a6020526040902080546001909101549091565b600480546006546040517f215bd303000000000000000000000000000000000000000000000000000000008152602481018790526044810186905260648101859052600160a060020a039182166084820181905260a094820194855260a482018990526000948594939093169263215bd303928b928b928b928b928b929091819060c4018888808284378201915050975050505050505050602060405180830381600087803b1580156200148d57600080fd5b505af1158015620014a2573d6000803e3d6000fd5b505050506040513d6020811015620014b957600080fd5b50516040805160208082528101899052919250600160a060020a038084169232909116917f3c29f4ff1e741e465a1ad9cc4c0b8e51c046c021ca9e77172d812ae667f566f8918b918b91908190810184848082843760405192018290039550909350505050a39695505050505050565b600b6020526000908152604090205481565b600033600160a060020a031684600160a060020a0316630690e5b86040518163ffffffff1660e060020a028152600401602060405180830381600087803b1580156200158657600080fd5b505af11580156200159b573d6000803e3d6000fd5b505050506040513d6020811015620015b257600080fd5b5051600160a060020a031614620015c857600080fd5b620015d4838362003bbe565b1515620015e057600080fd5b5060019392505050565b600454600160a060020a031681565b603281565b600a81565b6000620016113383620036b4565b15156200161d57600080fd5b60408051600160a060020a03848116825291513392909216917f5580db655b3146ef4d1fdba3305cf74dbc3f29126c7a3832533f84e00d149ee39181900360200190a2506001919050565b600033600160a060020a031684600160a060020a0316630690e5b86040518163ffffffff1660e060020a028152600401602060405180830381600087803b158015620016b357600080fd5b505af1158015620016c8573d6000803e3d6000fd5b505050506040513d6020811015620016df57600080fd5b5051600160a060020a031614620016f557600080fd5b620015d4838362003c41565b600080600080600080600087955033600160a060020a031686600160a060020a0316635f44910c6040518163ffffffff1660e060020a028152600401602060405180830381600087803b1580156200175857600080fd5b505af11580156200176d573d6000803e3d6000fd5b505050506040513d60208110156200178457600080fd5b5051600160a060020a0316146200179a57600080fd5b85600160a060020a0316630690e5b86040518163ffffffff1660e060020a028152600401602060405180830381600087803b158015620017d957600080fd5b505af1158015620017ee573d6000803e3d6000fd5b505050506040513d60208110156200180557600080fd5b5051604080517fe329c4780000000000000000000000000000000000000000000000000000000081529051919650600160a060020a0388169163e329c478916004808201926020929091908290030181600087803b1580156200186757600080fd5b505af11580156200187c573d6000803e3d6000fd5b505050506040513d60208110156200189357600080fd5b505193506001846004811115620018a657fe5b1480620018bf57506002846004811115620018bd57fe5b145b1515620018cb57600080fd5b84600160a060020a03166389869163896040518263ffffffff1660e060020a0281526004018082600160a060020a0316600160a060020a03168152602001915050602060405180830381600087803b1580156200192757600080fd5b505af11580156200193c573d6000803e3d6000fd5b505050506040513d60208110156200195357600080fd5b505115156200196157600080fd5b85600160a060020a0316634e71d92d6040518163ffffffff1660e060020a028152600401600060405180830381600087803b158015620019a057600080fd5b505af1158015620019b5573d6000803e3d6000fd5b50505050600560009054906101000a9004600160a060020a0316600160a060020a03166338c4090b87600160a060020a031663ecc40f646040518163ffffffff1660e060020a028152600401602060405180830381600087803b15801562001a1c57600080fd5b505af115801562001a31573d6000803e3d6000fd5b505050506040513d602081101562001a4857600080fd5b50516040805160e060020a63ffffffff851602815260048101929092525160248083019260209291908290030181600087803b15801562001a8857600080fd5b505af115801562001a9d573d6000803e3d6000fd5b505050506040513d602081101562001ab457600080fd5b5051600554604080517fecc40f640000000000000000000000000000000000000000000000000000000081529051929550600160a060020a03918216926355d66c3e928a169163ecc40f649160048083019260209291908290030181600087803b15801562001b2257600080fd5b505af115801562001b37573d6000803e3d6000fd5b505050506040513d602081101562001b4e57600080fd5b50516040805160e060020a63ffffffff851602815260048101929092525160248083019260209291908290030181600087803b15801562001b8e57600080fd5b505af115801562001ba3573d6000803e3d6000fd5b505050506040513d602081101562001bba57600080fd5b5051600554604080517f6b14ea36000000000000000000000000000000000000000000000000000000008152905192945062001c6192600160a060020a0390921691636b14ea36916004808201926020929091908290030181600087803b15801562001c2557600080fd5b505af115801562001c3a573d6000803e3d6000fd5b505050506040513d602081101562001c5157600080fd5b5051849063ffffffff62003cc616565b905062001d7886600160a060020a0316635f44910c6040518163ffffffff1660e060020a028152600401602060405180830381600087803b15801562001ca657600080fd5b505af115801562001cbb573d6000803e3d6000fd5b505050506040513d602081101562001cd257600080fd5b5051604080517f8628aaff000000000000000000000000000000000000000000000000000000008152905162001d7291600160a060020a038b1691638628aaff916004808201926020929091908290030181600087803b15801562001d3657600080fd5b505af115801562001d4b573d6000803e3d6000fd5b505050506040513d602081101562001d6257600080fd5b5051869063ffffffff6200369916565b62003bbe565b151562001d8457600080fd5b62001d90828262003cdd565b151562001d9c57600080fd5b62001da830826200360d565b151562001db457600080fd5b62001dc0308262003c41565b151562001dcc57600080fd5b7fb3cae8ec1c2754530963fb2e254826aae88dda74178f1a0c5656776941e604b88887600160a060020a0316630690e5b86040518163ffffffff1660e060020a028152600401602060405180830381600087803b15801562001e2d57600080fd5b505af115801562001e42573d6000803e3d6000fd5b505050506040513d602081101562001e5957600080fd5b505160408051600160a060020a0393841681529290911660208301528051918290030190a1506001979650505050505050565b600160a060020a03166000908152600b602052604090205490565b600154600160a060020a031681565b600033600160a060020a031685600160a060020a0316630690e5b86040518163ffffffff1660e060020a028152600401602060405180830381600087803b15801562001f0157600080fd5b505af115801562001f16573d6000803e3d6000fd5b505050506040513d602081101562001f2d57600080fd5b5051600160a060020a03161462001f4357600080fd5b62001f4f848462003cdd565b151562001f5b57600080fd5b811562000c3457600d5462001f7890600163ffffffff6200369916565b600d55600160a060020a0384166000908152600b602052604090205462001fd29062001fac90603263ffffffff62003d6f16565b600160a060020a0386166000908152600b60205260409020549063ffffffff6200388e16565b600160a060020a038086166000818152600b602090815260409182902094909455805192891683525190927fd21e70eb7104cb6f403402b79fe1c088dc56b69ecb7474ae68a3e861a5a6d499928290030190a2506001949350505050565b60085481565b60065460009033600160a060020a039081169116146200205557600080fd5b62002061838362003c41565b15156200206d57600080fd5b50600192915050565b600054600160a060020a031681565b60048054604080517f68c197dd000000000000000000000000000000000000000000000000000000008152600160a060020a03338181169583019590955291516000949392909216916368c197dd9160248082019260209290919082900301818887803b158015620020f657600080fd5b505af11580156200210b573d6000803e3d6000fd5b505050506040513d60208110156200212257600080fd5b505115156200213057600080fd5b620021a88382600160a060020a031663e2d36ef56040518163ffffffff1660e060020a028152600401602060405180830381600087803b1580156200217457600080fd5b505af115801562002189573d6000803e3d6000fd5b505050506040513d6020811015620021a057600080fd5b505162003c41565b1515620021b457600080fd5b80600160a060020a0316636ab6936a6040518163ffffffff1660e060020a028152600401602060405180830381600087803b158015620021f357600080fd5b505af115801562002208573d6000803e3d6000fd5b505050506040513d60208110156200221f57600080fd5b5051600160a060020a0384166000908152600a602052604090205410156200224657600080fd5b80600160a060020a031663cc6f06a36040518163ffffffff1660e060020a028152600401602060405180830381600087803b1580156200228557600080fd5b505af11580156200229a573d6000803e3d6000fd5b505050506040513d6020811015620022b157600080fd5b5051600160a060020a0384166000908152600b60205260409020541015620022d857600080fd5b60048054604080517f1884c517000000000000000000000000000000000000000000000000000000008152600160a060020a0333811694820194909452868416602482015290519290911691631884c517916044808201926020929091908290030181600087803b1580156200234d57600080fd5b505af115801562002362573d6000803e3d6000fd5b505050506040513d60208110156200237957600080fd5b505115156200238757600080fd5b60408051600160a060020a03858116825291513392909216917fd3548f8b6a2a11c4a35ef5a16dbf7142c9db5163c7d46e7f66482664277cff079181900360200190a250600192915050565b60008054604080517f23b872dd000000000000000000000000000000000000000000000000000000008152600160a060020a033381166004830152308116602483015260448201869052915191909216916323b872dd91606480830192602092919082900301818787803b1580156200244b57600080fd5b505af115801562002460573d6000803e3d6000fd5b505050506040513d60208110156200247757600080fd5b505115156200248557600080fd5b600160a060020a0333166000908152600a6020526040902054620024b0908363ffffffff6200369916565b600160a060020a0333166000818152600a602090815260409182902093909355805191825291810184905281517fe1fffcc4923d04b559f4d29a8bfc6cda04eb5b0d3c460751c2402c5c5cc9109c929181900390910190a1506001919050565b60008060008060008060008060008060008e995033600160a060020a03168a600160a060020a0316630690e5b86040518163ffffffff1660e060020a028152600401602060405180830381600087803b1580156200256d57600080fd5b505af115801562002582573d6000803e3d6000fd5b505050506040513d60208110156200259957600080fd5b5051600160a060020a031614620025af57600080fd5b60028a600160a060020a031663e329c4786040518163ffffffff1660e060020a028152600401602060405180830381600087803b158015620025f057600080fd5b505af115801562002605573d6000803e3d6000fd5b505050506040513d60208110156200261c57600080fd5b505160048111156200262a57fe5b146200263557600080fd5b89600160a060020a0316636946f6926040518163ffffffff1660e060020a028152600401602060405180830381600087803b1580156200267457600080fd5b505af115801562002689573d6000803e3d6000fd5b505050506040513d6020811015620026a057600080fd5b5051604080517f26137e6b0000000000000000000000000000000000000000000000000000000081529051919a50600160a060020a038b16916326137e6b916004808201926020929091908290030181600087803b1580156200270257600080fd5b505af115801562002717573d6000803e3d6000fd5b505050506040513d60208110156200272e57600080fd5b505197506000881115620027c057620027b489600160a060020a031663deff41c16040518163ffffffff1660e060020a028152600401602060405180830381600087803b1580156200277f57600080fd5b505af115801562002794573d6000803e3d6000fd5b505050506040513d6020811015620027ab57600080fd5b5051896200360d565b1515620027c057600080fd5b89600160a060020a03166371a599ca6040518163ffffffff1660e060020a028152600401602060405180830381600087803b158015620027ff57600080fd5b505af115801562002814573d6000803e3d6000fd5b505050506040513d60208110156200282b57600080fd5b50519650600160a060020a038716156200293c5786600160a060020a03166362d598eb6040518163ffffffff1660e060020a028152600401602060405180830381600087803b1580156200287e57600080fd5b505af115801562002893573d6000803e3d6000fd5b505050506040513d6020811015620028aa57600080fd5b5051955060008611156200293c576200293087600160a060020a031663deff41c16040518163ffffffff1660e060020a028152600401602060405180830381600087803b158015620028fb57600080fd5b505af115801562002910573d6000803e3d6000fd5b505050506040513d60208110156200292757600080fd5b5051876200360d565b15156200293c57600080fd5b600560009054906101000a9004600160a060020a0316600160a060020a03166338c4090b8b600160a060020a031663ecc40f646040518163ffffffff1660e060020a028152600401602060405180830381600087803b1580156200299f57600080fd5b505af1158015620029b4573d6000803e3d6000fd5b505050506040513d6020811015620029cb57600080fd5b50516040805160e060020a63ffffffff851602815260048101929092525160248083019260209291908290030181600087803b15801562002a0b57600080fd5b505af115801562002a20573d6000803e3d6000fd5b505050506040513d602081101562002a3757600080fd5b5051600554604080517fecc40f640000000000000000000000000000000000000000000000000000000081529051929750600160a060020a03918216926355d66c3e928e169163ecc40f649160048083019260209291908290030181600087803b15801562002aa557600080fd5b505af115801562002aba573d6000803e3d6000fd5b505050506040513d602081101562002ad157600080fd5b50516040805160e060020a63ffffffff851602815260048101929092525160248083019260209291908290030181600087803b15801562002b1157600080fd5b505af115801562002b26573d6000803e3d6000fd5b505050506040513d602081101562002b3d57600080fd5b5051600554604080517f6b14ea36000000000000000000000000000000000000000000000000000000008152905192965062002be492600160a060020a0390921691636b14ea36916004808201926020929091908290030181600087803b15801562002ba857600080fd5b505af115801562002bbd573d6000803e3d6000fd5b505050506040513d602081101562002bd457600080fd5b5051869063ffffffff62003cc616565b925062002cfb8a600160a060020a0316635f44910c6040518163ffffffff1660e060020a028152600401602060405180830381600087803b15801562002c2957600080fd5b505af115801562002c3e573d6000803e3d6000fd5b505050506040513d602081101562002c5557600080fd5b5051604080517f8628aaff000000000000000000000000000000000000000000000000000000008152905162002cf591600160a060020a038f1691638628aaff916004808201926020929091908290030181600087803b15801562002cb957600080fd5b505af115801562002cce573d6000803e3d6000fd5b505050506040513d602081101562002ce557600080fd5b5051889063ffffffff6200369916565b62003cdd565b151562002d0757600080fd5b62002d13848462003bbe565b151562002d1f57600080fd5b89600160a060020a031663d5fdfdbc8f8f8f6040518463ffffffff1660e060020a02815260040180806020018060200180602001848103845287818151815260200191508051906020019080838360005b8381101562002d8a57818101518382015260200162002d70565b50505050905090810190601f16801562002db85780820380516001836020036101000a031916815260200191505b50848103835286518152865160209182019188019080838360005b8381101562002ded57818101518382015260200162002dd3565b50505050905090810190601f16801562002e1b5780820380516001836020036101000a031916815260200191505b50848103825285518152855160209182019187019080838360005b8381101562002e5057818101518382015260200162002e36565b50505050905090810190601f16801562002e7e5780820380516001836020036101000a031916815260200191505b509650505050505050600060405180830381600087803b15801562002ea257600080fd5b505af115801562002eb7573d6000803e3d6000fd5b5050505062002ec630620013b7565b925050600082111562002f3e5762002f0c62002efe6103e862002ef185600a63ffffffff62003cc616565b9063ffffffff62003d8716565b839063ffffffff62003d6f16565b905062002f1a308262003cdd565b151562002f2657600080fd5b62002f3284826200360d565b151562002f3e57600080fd5b7fed236d0a24cb7a32c76960696e44bac711b80ef76780688405dc96c2495b75f98f8b600160a060020a0316630690e5b86040518163ffffffff1660e060020a028152600401602060405180830381600087803b15801562002f9f57600080fd5b505af115801562002fb4573d6000803e3d6000fd5b505050506040513d602081101562002fcb57600080fd5b505160408051600160a060020a0393841681529290911660208301528051918290030190a15060019e9d5050505050505050505050505050565b600954600160a060020a031681565b60065460009033600160a060020a039081169116146200303357600080fd5b62002061838362003bbe565b600354600160a060020a031681565b600a602052600090815260409020805460019091015482565b600654600160a060020a031681565b600154600160a060020a03165b90565b600154600160a060020a0316156200309d57600080fd5b60018054600160a060020a0396871673ffffffffffffffffffffffffffffffffffffffff199182168117909255600080548216909217909155600680549587169582168617905560058054821690951790945560048054938616938516939093179092556002805491851691841691909117905560038054919093169116179055565b6007602090815260009182526040918290208054600180830180548651600293821615610100026000190190911692909204601f810186900486028301860190965285825291949293909290830182828015620031c15780601f106200319557610100808354040283529160200191620031c1565b820191906000526020600020905b815481529060010190602001808311620031a357829003601f168201915b50505060028085018054604080516020601f6000196101006001871615020190941695909504928301859004850281018501909152818152959695945090925090830182828015620032575780601f106200322b5761010080835404028352916020019162003257565b820191906000526020600020905b8154815290600101906020018083116200323957829003601f168201915b5050505050908060030154905084565b60006060806000620032798562000fcd565b15156200328557600080fd5b600085815260076020908152604091829020805460038201546001808401805487516002938216156101000260001901909116839004601f81018890048802820188019098528781529396909591909401939192918591830182828015620033315780601f10620033055761010080835404028352916020019162003331565b820191906000526020600020905b8154815290600101906020018083116200331357829003601f168201915b5050855460408051602060026001851615610100026000190190941693909304601f810184900484028201840190925281815295985087945092508401905082828015620033c35780601f106200339757610100808354040283529160200191620033c3565b820191906000526020600020905b815481529060010190602001808311620033a557829003601f168201915b5050505050915093509350935093509193509193565b60048054604080517fd440c6f3000000000000000000000000000000000000000000000000000000008152600160a060020a038581169482019490945290516000938493169163d440c6f391602480830192602092919082900301818787803b1580156200344657600080fd5b505af11580156200345b573d6000803e3d6000fd5b505050506040513d60208110156200347257600080fd5b5051600160a060020a03939093166000908152600b60205260409020549293915050565b6002546040517ffc06a87700000000000000000000000000000000000000000000000000000000815260248101859052606060048201908152606482018790526000928392600160a060020a039091169163fc06a877918a918a918a918a918a919081906044810190608401888880828437909101848103835285815260200190508585808284378201915050975050505050505050602060405180830381600087803b1580156200354757600080fd5b505af11580156200355c573d6000803e3d6000fd5b505050506040513d60208110156200357357600080fd5b5051604080516020810188905260608082528101899052919250600160a060020a038084169232909116917f03d3b6187bbe7d21aa3cf229e292ba41fa8bca6ec2128c0f1625178b8191cdc2918b918b918b918b918b918190810160808201888880828437909101848103835285815260200190508585808284376040519201829003995090975050505050505050a39695505050505050565b600160a060020a0382166000908152600a602052604081205462003638908363ffffffff6200369916565b600160a060020a0384166000818152600a602090815260409182902093909355805191825291810184905281517f619caafabdd75649b302ba8419e48cccf64f37f1983ac4727cfb38b57703ffc9929181900390910190a150600192915050565b600082820183811015620036a957fe5b8091505b5092915050565b60048054604080517f68c197dd000000000000000000000000000000000000000000000000000000008152600160a060020a03808716948201949094529051600093869316916368c197dd91602480830192602092919082900301818887803b1580156200372157600080fd5b505af115801562003736573d6000803e3d6000fd5b505050506040513d60208110156200374d57600080fd5b505115156200375b57600080fd5b620037d38382600160a060020a031663e2d36ef56040518163ffffffff1660e060020a028152600401602060405180830381600087803b1580156200379f57600080fd5b505af1158015620037b4573d6000803e3d6000fd5b505050506040513d6020811015620037cb57600080fd5b505162003bbe565b1515620037df57600080fd5b60048054604080517f0b00de8d000000000000000000000000000000000000000000000000000000008152600160a060020a0388811694820194909452868416602482015290519290911691630b00de8d916044808201926020929091908290030181600087803b1580156200385457600080fd5b505af115801562003869573d6000803e3d6000fd5b505050506040513d60208110156200388057600080fd5b50511515620015e057600080fd5b6000828211156200389b57fe5b50900390565b600254604080517f8403be91000000000000000000000000000000000000000000000000000000008152600160a060020a03808616600483015291516000938693859384939190921691638403be9191602480830192602092919082900301818787803b1580156200391257600080fd5b505af115801562003927573d6000803e3d6000fd5b505050506040513d60208110156200393e57600080fd5b505115156200394c57600080fd5b82600160a060020a03166326137e6b6040518163ffffffff1660e060020a028152600401602060405180830381600087803b1580156200398b57600080fd5b505af1158015620039a0573d6000803e3d6000fd5b505050506040513d6020811015620039b757600080fd5b50519150600160a060020a0385161562003af45750600354604080517f16265b4e000000000000000000000000000000000000000000000000000000008152600160a060020a0380881660048301529151879392909216916316265b4e916024808201926020929091908290030181600087803b15801562003a3857600080fd5b505af115801562003a4d573d6000803e3d6000fd5b505050506040513d602081101562003a6457600080fd5b5051151562003a7257600080fd5b62003af181600160a060020a03166362d598eb6040518163ffffffff1660e060020a028152600401602060405180830381600087803b15801562003ab557600080fd5b505af115801562003aca573d6000803e3d6000fd5b505050506040513d602081101562003ae157600080fd5b5051839063ffffffff6200369916565b91505b60048054604080517f68c197dd000000000000000000000000000000000000000000000000000000008152600160a060020a038b811694820194909452905192909116916368c197dd916024808201926020929091908290030181600087803b15801562003b6157600080fd5b505af115801562003b76573d6000803e3d6000fd5b505050506040513d602081101562003b8d57600080fd5b5051151562003b9b57600080fd5b62003ba7888362003c41565b151562003bb357600080fd5b509695505050505050565b600160a060020a0382166000908152600a602052604081206001015462003bec908363ffffffff6200388e16565b600160a060020a0384166000908152600a6020526040902060018101919091555462003c1f908363ffffffff6200369916565b600160a060020a0384166000908152600a602052604090205550600192915050565b600160a060020a0382166000908152600a602052604081205462003c6c908363ffffffff6200388e16565b600160a060020a0384166000908152600a602052604090209081556001015462003c9d908363ffffffff6200369916565b600160a060020a0384166000908152600a60205260409020600190810191909155905092915050565b600062003cd68383606462003d99565b9392505050565b600160a060020a0382166000908152600a602052604081206001015462003d0b908363ffffffff6200388e16565b600160a060020a0384166000818152600a602090815260409182902060010193909355805191825291810184905281517f4051ba94e08bb094159fc38391422b4b8ccfd2b1f8919c0eb37bb042d4b9cd8e929181900390910190a150600192915050565b600081831062003d80578162003cd6565b5090919050565b60008183101562003d80578162003cd6565b600062003db262003dab858562003dba565b8362003de9565b949350505050565b60008083151562003dcf5760009150620036ad565b5082820282848281151562003de057fe5b0414620036a957fe5b600080828481151562003df857fe5b04949350505050565b828054600181600116156101000203166002900490600052602060002090601f016020900481019282601f1062003e4457805160ff191683800117855562003e74565b8280016001018555821562003e74579182015b8281111562003e7457825182559160200191906001019062003e57565b5062003e8292915062003e97565b5090565b604051610cf58062003eb583390190565b6200308391905b8082111562003e82576000815560010162003e9e5600608060405234801561001057600080fd5b50604051610cf5380380610cf583398101604090815281516020830151918301516060840151608085015160a086015160c087015160e0880151610100890151600d8054600160a060020a03191633600160a060020a03908116919091179091559799969795969495939492909201929091908816151561009057600080fd5b6000805460ff1916600190811790915589905560028054600160a060020a0319908116600160a060020a038a81169190911790925560038054821689841617905560048054821688841617905560058054909116918a169190911790556006849055825161010590600790602086019061013f565b5060088054600160a060020a03938416600160a060020a03199182161790915560098054929093169116179055506101da95505050505050565b828054600181600116156101000203166002900490600052602060002090601f016020900481019282601f1061018057805160ff19168380011785556101ad565b828001600101855582156101ad579182015b828111156101ad578251825591602001919060010190610192565b506101b99291506101bd565b5090565b6101d791905b808211156101b957600081556001016101c3565b90565b610b0c806101e96000396000f3006080604052600436106100fb5763ffffffff7c01000000000000000000000000000000000000000000000000000000006000350416630690e5b8811461010057806315298c77146101315780631a514d97146101bb5780632d4d671f146101e45780634e71d92d146101f95780635f44910c146102105780636946f6921461022557806371a599ca1461023a5780638628aaff1461024f5780639c4a856114610276578063cc3a2dfa1461028b578063d3a69e01146102a0578063d5fdfdbc146102b5578063da1fea281461038a578063e329c4781461039f578063ecc40f64146103d8578063f3859f57146103ed578063f6a5b13e14610402575b600080fd5b34801561010c57600080fd5b50610115610417565b60408051600160a060020a039092168252519081900360200190f35b34801561013d57600080fd5b50610146610426565b6040805160208082528351818301528351919283929083019185019080838360005b83811015610180578181015183820152602001610168565b50505050905090810190601f1680156101ad5780820380516001836020036101000a031916815260200191505b509250505060405180910390f35b3480156101c757600080fd5b506101d06104b4565b604080519115158252519081900360200190f35b3480156101f057600080fd5b506101d061052a565b34801561020557600080fd5b5061020e61059f565b005b34801561021c57600080fd5b5061011561062a565b34801561023157600080fd5b50610115610639565b34801561024657600080fd5b50610115610648565b34801561025b57600080fd5b50610264610657565b60408051918252519081900360200190f35b34801561028257600080fd5b5061014661065d565b34801561029757600080fd5b506101466106b8565b3480156102ac57600080fd5b50610115610713565b3480156102c157600080fd5b506040805160206004803580820135601f810184900484028501840190955284845261020e94369492936024939284019190819084018382808284375050604080516020601f89358b018035918201839004830284018301909452808352979a99988101979196509182019450925082915084018382808284375050604080516020601f89358b018035918201839004830284018301909452808352979a9998810197919650918201945092508291508401838280828437509497506107229650505050505050565b34801561039657600080fd5b506101156109c0565b3480156103ab57600080fd5b506103b46109cf565b604051808260048111156103c457fe5b60ff16815260200191505060405180910390f35b3480156103e457600080fd5b506102646109d8565b3480156103f957600080fd5b506101466109de565b34801561040e57600080fd5b50610115610a39565b600454600160a060020a031681565b6007805460408051602060026001851615610100026000190190941693909304601f810184900484028201840190925281815292918301828280156104ac5780601f10610481576101008083540402835291602001916104ac565b820191906000526020600020905b81548152906001019060200180831161048f57829003601f168201915b505050505081565b60045460009033600160a060020a039081169116146104d257600080fd5b600260005460ff1660048111156104e557fe5b146104ef57600080fd5b6000805460ff191660011781556040517f06c42818c4ab74dff6aec55942f601c2e9b7f2aa4321ee71690b125eacfe46549190a15060015b90565b60045460009033600160a060020a0390811691161461054857600080fd5b600160005460ff16600481111561055b57fe5b1461056557600080fd5b6000805460ff191660021781556040517f2b0cab0be6d82b2661b3b789c540ec9c7223aac635ac8e59a1e71e1137f2dd779190a150600190565b600d5433600160a060020a039081169116146105ba57600080fd5b600160005460ff1660048111156105cd57fe5b14806105e95750600260005460ff1660048111156105e757fe5b145b15156105f457600080fd5b6000805460ff191660031781556040517f1938697ee29e363ecda49e464c6d2aae25f0974bd1f2c81a91c21e13ad8dbf779190a1565b600554600160a060020a031681565b600254600160a060020a031681565b600354600160a060020a031681565b60065481565b600c805460408051602060026001851615610100026000190190941693909304601f810184900484028201840190925281815292918301828280156104ac5780601f10610481576101008083540402835291602001916104ac565b600a805460408051602060026001851615610100026000190190941693909304601f810184900484028201840190925281815292918301828280156104ac5780601f10610481576101008083540402835291602001916104ac565b600d54600160a060020a031681565b600d5433600160a060020a0390811691161461073d57600080fd5b600260005460ff16600481111561075057fe5b1461075a57600080fd5b6000805460ff19166004179055825161077a90600a906020860190610a48565b50815161078e90600b906020850190610a48565b5080516107a290600c906020840190610a48565b50600854600160a060020a031615610992576008546040517f514d706700000000000000000000000000000000000000000000000000000000815230600160a060020a0381811660048401908152608060248501908152885160848601528851929095169463514d706794899389938993909290916044820191606481019160a490910190602089019080838360005b8381101561084a578181015183820152602001610832565b50505050905090810190601f1680156108775780820380516001836020036101000a031916815260200191505b50848103835286518152865160209182019188019080838360005b838110156108aa578181015183820152602001610892565b50505050905090810190601f1680156108d75780820380516001836020036101000a031916815260200191505b50848103825285518152855160209182019187019080838360005b8381101561090a5781810151838201526020016108f2565b50505050905090810190601f1680156109375780820380516001836020036101000a031916815260200191505b50975050505050505050602060405180830381600087803b15801561095b57600080fd5b505af115801561096f573d6000803e3d6000fd5b505050506040513d602081101561098557600080fd5b5051151561099257600080fd5b6040517f777f59509d985349c80271b657d2649b218bc6f075a4625821b64448cc235b8690600090a1505050565b600854600160a060020a031681565b60005460ff1681565b60015481565b600b805460408051602060026001851615610100026000190190941693909304601f810184900484028201840190925281815292918301828280156104ac5780601f10610481576101008083540402835291602001916104ac565b600954600160a060020a031681565b828054600181600116156101000203166002900490600052602060002090601f016020900481019282601f10610a8957805160ff1916838001178555610ab6565b82800160010185558215610ab6579182015b82811115610ab6578251825591602001919060010190610a9b565b50610ac2929150610ac6565b5090565b61052791905b80821115610ac25760008155600101610acc5600a165627a7a7230582058799d2890ae5be1c660cde7ce1a750fc7c75c6d8c6cf536d5c1e2ab050abf1b0029a165627a7a723058200cbb1458210fa20878687aa9944fe21938c151080cf5dbdce765a829f144a9960029",
  "source": "pragma solidity ^0.4.21;\n\nimport \"rlc-faucet-contract/contracts/RLC.sol\";\n\nimport './WorkOrder.sol';\nimport './Marketplace.sol';\nimport './AppHub.sol';\nimport './DatasetHub.sol';\nimport './WorkerPoolHub.sol';\nimport \"./SafeMathOZ.sol\";\nimport './IexecLib.sol';\n\n\n/**\n * @title IexecHub\n */\n\ncontract IexecHub\n{\n\tusing SafeMathOZ for uint256;\n\n\t/**\n\t* RLC contract for token transfers.\n\t*/\n\tRLC     public rlc;\n\taddress public tokenAddress;\n\n\tuint256 public constant STAKE_BONUS_RATIO  = 10;\n\tuint256 public constant STAKE_BONUS_MIN_THRESHOLD = 1000;\n\n\tuint256 public constant SCORE_UNITARY_SLASH = 50;\n\n\t/**\n\t * Slaves contracts\n\t */\n\tAppHub        public appHub;\n\tDatasetHub    public datasetHub;\n\tWorkerPoolHub public workerPoolHub;\n\n\t/**\n\t * Market place\n\t */\n\tMarketplace marketplace;\n\taddress     public marketplaceAddress;\n\tmodifier onlyMarketplace()\n\t{\n\t\trequire(msg.sender == marketplaceAddress);\n\t\t_;\n\t}\n\t/**\n\t * Categories\n\t */\n\tmapping(uint256 => IexecLib.Category) public m_categories;\n\tuint256                               public m_categoriesCount;\n\taddress                               public m_categoriesCreator;\n\tmodifier onlyCategoriesCreator()\n\t{\n\t\trequire(msg.sender == m_categoriesCreator);\n\t\t_;\n\t}\n\n\t/**\n\t * Escrow\n\t */\n\tmapping(address => IexecLib.Account) public m_accounts;\n\n\t/**\n\t * Reputation for PoCo\n\t */\n\tmapping(address => uint256)  public m_scores;\n\tIexecLib.ContributionHistory public m_contributionHistory;\n\n\n\tevent WorkOrderActivated(address woid, address indexed workerPool);\n\tevent WorkOrderClaimed  (address woid, address workerPool);\n\tevent WorkOrderCompleted(address woid, address workerPool);\n\n\tevent CreateApp       (address indexed appOwner,        address indexed app,        string appName,     uint256 appPrice,     string appParams    );\n\tevent CreateDataset   (address indexed datasetOwner,    address indexed dataset,    string datasetName, uint256 datasetPrice, string datasetParams);\n\tevent CreateWorkerPool(address indexed workerPoolOwner, address indexed workerPool, string workerPoolDescription                                        );\n\n\tevent CreateCategory  (uint256 catid, string name, string description, uint256 workClockTimeRef);\n\n\tevent WorkerPoolSubscription  (address indexed workerPool, address worker);\n\tevent WorkerPoolUnsubscription(address indexed workerPool, address worker);\n\tevent WorkerPoolEviction      (address indexed workerPool, address worker);\n\n\tevent AccurateContribution(address woid, address indexed worker);\n\tevent FaultyContribution  (address woid, address indexed worker);\n\n\tevent Deposit (address owner, uint256 amount);\n\tevent Withdraw(address owner, uint256 amount);\n\tevent Reward  (address user,  uint256 amount);\n\tevent Seize   (address user,  uint256 amount);\n\n\t/**\n\t * Constructor\n\t */\n\tfunction IexecHub(\n\t)\n\tpublic\n\t{\n\n\t}\n\n\n\tfunction attachContracts(address _tokenAddress,address _marketplaceAddress, address _workerPoolHubAddress, address _appHubAddress, address _datasetHubAddress) public\n\t{\n\t\trequire(tokenAddress == address(0));\n\t\ttokenAddress       = _tokenAddress;\n\t\trlc                = RLC(_tokenAddress);\n\n\t\tmarketplaceAddress = _marketplaceAddress;\n\t\tmarketplace        = Marketplace(_marketplaceAddress);\n\n\t\tworkerPoolHub      = WorkerPoolHub(_workerPoolHubAddress);\n\t\tappHub             = AppHub       (_appHubAddress       );\n\t\tdatasetHub         = DatasetHub   (_datasetHubAddress   );\n\t}\n\n\tfunction setCategoriesCreator(address _categoriesCreator) public\n\t{\n\t\trequire(m_categoriesCreator == address(0) || (m_categoriesCreator != address(0) && msg.sender == m_categoriesCreator));\n\t\tm_categoriesCreator = _categoriesCreator;\n\t}\n\n\t/**\n\t * Factory\n\t */\n\n\tfunction createCategory(\n\t\tstring  _name,\n\t\tstring  _description,\n\t\tuint256 _workClockTimeRef)\n\tpublic onlyCategoriesCreator returns (uint256 catid)\n\t{\n\t\tm_categoriesCount                  = m_categoriesCount.add(1);\n\t\tIexecLib.Category storage category = m_categories[m_categoriesCount];\n\t\tcategory.catid                     = m_categoriesCount;\n\t\tcategory.name                      = _name;\n\t\tcategory.description               = _description;\n\t\tcategory.workClockTimeRef          = _workClockTimeRef;\n\t\temit CreateCategory(m_categoriesCount, _name, _description, _workClockTimeRef);\n\t\treturn m_categoriesCount;\n\t}\n\n\tfunction createWorkerPool(\n\t\tstring  _description,\n\t\tuint256 _subscriptionLockStakePolicy,\n\t\tuint256 _subscriptionMinimumStakePolicy,\n\t\tuint256 _subscriptionMinimumScorePolicy)\n\texternal returns (address createdWorkerPool)\n\t{\n\t\taddress newWorkerPool = workerPoolHub.createWorkerPool(\n\t\t\t_description,\n\t\t\t_subscriptionLockStakePolicy,\n\t\t\t_subscriptionMinimumStakePolicy,\n\t\t\t_subscriptionMinimumScorePolicy,\n\t\t\tmarketplaceAddress\n\t\t);\n\t\temit CreateWorkerPool(tx.origin, newWorkerPool, _description);\n\t\treturn newWorkerPool;\n\t}\n\n\tfunction createApp(\n\t\tstring  _appName,\n\t\tuint256 _appPrice,\n\t\tstring  _appParams)\n\texternal returns (address createdApp)\n\t{\n\t\taddress newApp = appHub.createApp(\n\t\t\t_appName,\n\t\t\t_appPrice,\n\t\t\t_appParams\n\t\t);\n\t\temit CreateApp(tx.origin, newApp, _appName, _appPrice, _appParams);\n\t\treturn newApp;\n\t}\n\n\tfunction createDataset(\n\t\tstring  _datasetName,\n\t\tuint256 _datasetPrice,\n\t\tstring  _datasetParams)\n\texternal returns (address createdDataset)\n\t{\n\t\taddress newDataset = datasetHub.createDataset(\n\t\t\t_datasetName,\n\t\t\t_datasetPrice,\n\t\t\t_datasetParams\n\t\t\t);\n\t\temit CreateDataset(tx.origin, newDataset, _datasetName, _datasetPrice, _datasetParams);\n\t\treturn newDataset;\n\t}\n\n\t/**\n\t * WorkOrder Emission\n\t */\n\tfunction buyForWorkOrder(\n\t\tuint256 _marketorderIdx,\n\t\taddress _workerpool,\n\t\taddress _app,\n\t\taddress _dataset,\n\t\tstring  _params,\n\t\taddress _callback,\n\t\taddress _beneficiary)\n\texternal returns (address)\n\t{\n\t\taddress requester = msg.sender;\n\t\trequire(marketplace.consumeMarketOrderAsk(_marketorderIdx, requester, _workerpool));\n\n\t\tuint256 emitcost = lockWorkOrderCost(requester, _workerpool, _app, _dataset);\n\n\t\tWorkOrder workorder = new WorkOrder(\n\t\t\t_marketorderIdx,\n\t\t\trequester,\n\t\t\t_app,\n\t\t\t_dataset,\n\t\t\t_workerpool,\n\t\t\temitcost,\n\t\t\t_params,\n\t\t\t_callback,\n\t\t\t_beneficiary\n\t\t);\n\n\t\trequire(WorkerPool(_workerpool).emitWorkOrder(workorder, _marketorderIdx));\n\n\t\temit WorkOrderActivated(workorder, _workerpool);\n\t\treturn workorder;\n\t}\n\n\tfunction lockWorkOrderCost(\n\t\taddress _requester,\n\t\taddress _workerpool, // Address of a smartcontract\n\t\taddress _app,        // Address of a smartcontract\n\t\taddress _dataset)    // Address of a smartcontract\n\tinternal returns (uint256)\n\t{\n\t\t// APP\n\t\tApp app = App(_app);\n\t\trequire(appHub.isAppRegistered (_app       ));\n\t\t// initialize usercost with dapp price\n\t\tuint256 emitcost = app.m_appPrice();\n\n\t\t// DATASET\n\t\tif (_dataset != address(0)) // address(0)  no dataset\n\t\t{\n\t\t\tDataset dataset = Dataset(_dataset);\n\t\t\trequire(datasetHub.isDatasetRegistred(_dataset   ));\n\t\t\t// add optional datasetPrice for userCost\n\t\t\temitcost = emitcost.add(dataset.m_datasetPrice());\n\t\t}\n\n\t\t// WORKERPOOL\n\t\trequire(workerPoolHub.isWorkerPoolRegistered(_workerpool));\n\n\t\trequire(lock(_requester, emitcost)); // Lock funds for app + dataset payment\n\n\t\treturn emitcost;\n\t}\n\n\t/**\n\t * WorkOrder life cycle\n\t */\n\n\tfunction claimFailedConsensus(address _woid) public returns (bool)\n\t{\n\t\tWorkOrder  workorder  = WorkOrder(_woid);\n\t\trequire(workorder.m_requester() == msg.sender);\n\t\tWorkerPool workerpool = WorkerPool(workorder.m_workerpool());\n\n\t\tIexecLib.WorkOrderStatusEnum currentStatus = workorder.m_status();\n\t\trequire(currentStatus == IexecLib.WorkOrderStatusEnum.ACTIVE || currentStatus == IexecLib.WorkOrderStatusEnum.REVEALING);\n\t\t// Unlock stakes for all workers\n\t\trequire(workerpool.claimFailedConsensus(_woid));\n\t\tworkorder.claim(); // revert on error\n\n\t\tuint256 value           = marketplace.getMarketOrderValue(workorder.m_marketorderIdx()); // revert if not exist\n\t\taddress workerpoolOwner = marketplace.getMarketOrderWorkerpoolOwner(workorder.m_marketorderIdx()); // revert if not exist\n\t\tuint256 workerpoolStake = value.percentage(marketplace.ASK_STAKE_RATIO());\n\n\t\trequire(unlock (workorder.m_requester(), value.add(workorder.m_emitcost()))); // UNLOCK THE FUNDS FOR REINBURSEMENT\n\t\trequire(seize  (workerpoolOwner,         workerpoolStake));\n\t\t// put workerpoolOwner stake seize into iexecHub address for bonus for scheduler on next well finalized Task\n\t\trequire(reward (this,                    workerpoolStake));\n\t\trequire(lock   (this,                    workerpoolStake));\n\n\n\t\temit WorkOrderClaimed(_woid, workorder.m_workerpool());\n\t\treturn true;\n\t}\n\n\tfunction finalizeWorkOrder(\n\t\taddress _woid,\n\t\tstring  _stdout,\n\t\tstring  _stderr,\n\t\tstring  _uri)\n\tpublic returns (bool)\n\t{\n\t\tWorkOrder workorder = WorkOrder(_woid);\n\n\t\trequire(workorder.m_workerpool() == msg.sender);\n\t\trequire(workorder.m_status()     == IexecLib.WorkOrderStatusEnum.REVEALING);\n\n\t\t// APP\n\t\tApp     app      = App(workorder.m_app());\n\t\tuint256 appPrice = app.m_appPrice();\n\t\tif (appPrice > 0)\n\t\t{\n\t\t\trequire(reward(app.m_owner(), appPrice));\n\t\t}\n\n\t\t// DATASET\n\t\tDataset dataset = Dataset(workorder.m_dataset());\n\t\tif (dataset != address(0))\n\t\t{\n\t\t\tuint256 datasetPrice = dataset.m_datasetPrice();\n\t\t\tif (datasetPrice > 0)\n\t\t\t{\n\t\t\t\trequire(reward(dataset.m_owner(), datasetPrice));\n\t\t\t}\n\t\t}\n\n\t\t// WORKERPOOL  rewarding done by the caller itself\n\n\t\t/**\n\t\t * seize stacked funds from requester.\n\t\t * reward = value: was locked at market making\n\t\t * emitcost: was locked at when emiting the workorder\n\t\t */\n\t\tuint256 value           = marketplace.getMarketOrderValue(workorder.m_marketorderIdx()); // revert if not exist\n\t\taddress workerpoolOwner = marketplace.getMarketOrderWorkerpoolOwner(workorder.m_marketorderIdx()); // revert if not exist\n\t\tuint256 workerpoolStake = value.percentage(marketplace.ASK_STAKE_RATIO());\n\n\t\trequire(seize (workorder.m_requester(), value.add(workorder.m_emitcost()))); // seize funds for payment (market value + emitcost)\n\t\trequire(unlock(workerpoolOwner,         workerpoolStake)); // unlock scheduler stake\n\n\t\t// write results\n\t\tworkorder.setResult(_stdout, _stderr, _uri); // revert on error\n\n\t\t// Rien ne se perd, rien ne se cre, tout se transfere\n\t\t// distribute bonus to scheduler. jackpot bonus come from scheduler stake loose on IexecHub contract\n\t\tuint256 kitty;\n\t\t(,kitty) = checkBalance(this); // kitty is locked on `this` wallet\n\t\tif(kitty > 0)\n\t\t{\n\t\t\tuint256 kittyFraction = kitty.min(kitty.percentage(STAKE_BONUS_RATIO).max(STAKE_BONUS_MIN_THRESHOLD));\n\t\t\trequire(seize(this,             kittyFraction));\n\t\t\trequire(reward(workerpoolOwner, kittyFraction));\n\t\t}\n\n\t\temit WorkOrderCompleted(_woid, workorder.m_workerpool());\n\t\treturn true;\n\t}\n\n\t/**\n\t * Views\n\t */\n\tfunction getCategoryWorkClockTimeRef(uint256 _catId) public view returns (uint256 workClockTimeRef)\n\t{\n\t\trequire(existingCategory(_catId));\n\t\treturn m_categories[_catId].workClockTimeRef;\n\t}\n\n\tfunction existingCategory(uint256 _catId) public view  returns (bool categoryExist)\n\t{\n\t\treturn m_categories[_catId].catid > 0;\n\t}\n\n\tfunction getCategory(uint256 _catId) public view returns (uint256 catid, string name, string  description, uint256 workClockTimeRef)\n\t{\n\t\trequire(existingCategory(_catId));\n\t\treturn (\n\t\tm_categories[_catId].catid,\n\t\tm_categories[_catId].name,\n\t\tm_categories[_catId].description,\n\t\tm_categories[_catId].workClockTimeRef\n\t\t);\n\t}\n\n\tfunction getRLCAddress() public view returns (address rlcAddress)\n\t{\n\t\treturn tokenAddress;\n\t}\n\n\tfunction getWorkerStatus(address _worker) public view returns (address workerPool, uint256 workerScore)\n\t{\n\t\treturn (workerPoolHub.getWorkerAffectation(_worker), m_scores[_worker]);\n\t}\n\n\tfunction getWorkerScore(address _worker) public view returns (uint256 workerScore)\n\t{\n\t\treturn m_scores[_worker];\n\t}\n\n\t/**\n\t * Worker subscription\n\t */\n\tfunction registerToPool(address _worker) public returns (bool subscribed)\n\t// msg.sender = workerPool\n\t{\n\t\tWorkerPool workerpool = WorkerPool(msg.sender);\n\t\t// Check credentials\n\t\trequire(workerPoolHub.isWorkerPoolRegistered(msg.sender));\n\t\t// Lock worker deposit\n\t\trequire(lock(_worker, workerpool.m_subscriptionLockStakePolicy()));\n\t\t// Check subscription policy\n\t\trequire(m_accounts[_worker].stake >= workerpool.m_subscriptionMinimumStakePolicy());\n\t\trequire(m_scores[_worker]         >= workerpool.m_subscriptionMinimumScorePolicy());\n\t\t// Update affectation\n\t\trequire(workerPoolHub.registerWorkerAffectation(msg.sender, _worker));\n\t\t// Trigger event notice\n\t\temit WorkerPoolSubscription(msg.sender, _worker);\n\t\treturn true;\n\t}\n\n\tfunction unregisterFromPool(address _worker) public returns (bool unsubscribed)\n\t// msg.sender = workerPool\n\t{\n\t\trequire(removeWorker(msg.sender, _worker));\n\t\t// Trigger event notice\n\t\temit WorkerPoolUnsubscription(msg.sender, _worker);\n\t\treturn true;\n\t}\n\n\tfunction evictWorker(address _worker) public returns (bool unsubscribed)\n\t// msg.sender = workerpool\n\t{\n\t\trequire(removeWorker(msg.sender, _worker));\n\t\t// Trigger event notice\n\t\temit WorkerPoolEviction(msg.sender, _worker);\n\t\treturn true;\n\t}\n\n\tfunction removeWorker(address _workerpool, address _worker) internal returns (bool unsubscribed)\n\t{\n\t\tWorkerPool workerpool = WorkerPool(_workerpool);\n\t\t// Check credentials\n\t\trequire(workerPoolHub.isWorkerPoolRegistered(_workerpool));\n\t\t// Unlick worker stake\n\t\trequire(unlock(_worker, workerpool.m_subscriptionLockStakePolicy()));\n\t\t// Update affectation\n\t\trequire(workerPoolHub.unregisterWorkerAffectation(_workerpool, _worker));\n\t\treturn true;\n\t}\n\n\t/**\n\t * Stake, reward and penalty functions\n\t */\n\t/* Marketplace */\n\tfunction lockForOrder(address _user, uint256 _amount) public onlyMarketplace returns (bool)\n\t{\n\t\trequire(lock(_user, _amount));\n\t\treturn true;\n\t}\n\tfunction unlockForOrder(address _user, uint256 _amount) public  onlyMarketplace returns (bool)\n\t{\n\t\trequire(unlock(_user, _amount));\n\t\treturn true;\n\t}\n\t/* Work */\n\tfunction lockForWork(address _woid, address _user, uint256 _amount) public returns (bool)\n\t{\n\t\trequire(WorkOrder(_woid).m_workerpool() == msg.sender);\n\t\trequire(lock(_user, _amount));\n\t\treturn true;\n\t}\n\tfunction unlockForWork(address _woid, address _user, uint256 _amount) public returns (bool)\n\t{\n\t\trequire(WorkOrder(_woid).m_workerpool() == msg.sender);\n\t\trequire(unlock(_user, _amount));\n\t\treturn true;\n\t}\n\tfunction rewardForWork(address _woid, address _worker, uint256 _amount, bool _reputation) public returns (bool)\n\t{\n\t\trequire(WorkOrder(_woid).m_workerpool() == msg.sender);\n\t\trequire(reward(_worker, _amount));\n\t\t// ------------------------------------------------------------------------\n\t\tif (_reputation)\n\t\t{\n\t\t\tm_contributionHistory.success = m_contributionHistory.success.add(1);\n\t\t\tm_scores[_worker] = m_scores[_worker].add(1);\n\t\t\temit AccurateContribution(_woid, _worker);\n\t\t}\n\t\treturn true;\n\t}\n\tfunction seizeForWork(address _woid, address _worker, uint256 _amount, bool _reputation) public returns (bool)\n\t{\n\t\trequire(WorkOrder(_woid).m_workerpool() == msg.sender);\n\t\trequire(seize(_worker, _amount));\n\t\t// ------------------------------------------------------------------------\n\t\tif (_reputation)\n\t\t{\n\t\t\tm_contributionHistory.failled = m_contributionHistory.failled.add(1);\n\t\t\tm_scores[_worker] = m_scores[_worker].sub(m_scores[_worker].min(SCORE_UNITARY_SLASH));\n\t\t\temit FaultyContribution(_woid, _worker);\n\t\t}\n\t\treturn true;\n\t}\n\t/**\n\t * Wallet methods: public\n\t */\n\tfunction deposit(uint256 _amount) external returns (bool)\n\t{\n\t\trequire(rlc.transferFrom(msg.sender, address(this), _amount));\n\t\tm_accounts[msg.sender].stake = m_accounts[msg.sender].stake.add(_amount);\n\t\temit Deposit(msg.sender, _amount);\n\t\treturn true;\n\t}\n\tfunction withdraw(uint256 _amount) external returns (bool)\n\t{\n\t\tm_accounts[msg.sender].stake = m_accounts[msg.sender].stake.sub(_amount);\n\t\trequire(rlc.transfer(msg.sender, _amount));\n\t\temit Withdraw(msg.sender, _amount);\n\t\treturn true;\n\t}\n\tfunction checkBalance(address _owner) public view returns (uint256 stake, uint256 locked)\n\t{\n\t\treturn (m_accounts[_owner].stake, m_accounts[_owner].locked);\n\t}\n\t/**\n\t * Wallet methods: Internal\n\t */\n\tfunction reward(address _user, uint256 _amount) internal returns (bool)\n\t{\n\t\tm_accounts[_user].stake = m_accounts[_user].stake.add(_amount);\n\t\temit Reward(_user, _amount);\n\t\treturn true;\n\t}\n\tfunction seize(address _user, uint256 _amount) internal returns (bool)\n\t{\n\t\tm_accounts[_user].locked = m_accounts[_user].locked.sub(_amount);\n\t\temit Seize(_user, _amount);\n\t\treturn true;\n\t}\n\tfunction lock(address _user, uint256 _amount) internal returns (bool)\n\t{\n\t\tm_accounts[_user].stake  = m_accounts[_user].stake.sub(_amount);\n\t\tm_accounts[_user].locked = m_accounts[_user].locked.add(_amount);\n\t\treturn true;\n\t}\n\tfunction unlock(address _user, uint256 _amount) internal returns (bool)\n\t{\n\t\tm_accounts[_user].locked = m_accounts[_user].locked.sub(_amount);\n\t\tm_accounts[_user].stake  = m_accounts[_user].stake.add(_amount);\n\t\treturn true;\n\t}\n}\n",
  "sourcePath": "/home/victor/code/github.com/iExecBlockchainComputing/PoCo/contracts/IexecHub.sol",
  "compiler": {
    "name": "solc",
    "version": "0.4.23+commit.124ca40d.Emscripten.clang"
  },
  "schemaVersion": "2.0.0",
  "updatedAt": "2018-04-30T15:30:34.734Z"
}