{
  "contractName": "Marketplace",
  "abi": [
    {
      "constant": true,
      "inputs": [
        {
          "name": "",
          "type": "uint256"
        }
      ],
      "name": "m_orderBook",
      "outputs": [
        {
          "name": "direction",
          "type": "uint8"
        },
        {
          "name": "category",
          "type": "uint256"
        },
        {
          "name": "trust",
          "type": "uint256"
        },
        {
          "name": "value",
          "type": "uint256"
        },
        {
          "name": "volume",
          "type": "uint256"
        },
        {
          "name": "remaining",
          "type": "uint256"
        },
        {
          "name": "workerpool",
          "type": "address"
        },
        {
          "name": "workerpoolOwner",
          "type": "address"
        }
      ],
      "payable": false,
      "stateMutability": "view",
      "type": "function"
    },
    {
      "constant": true,
      "inputs": [],
      "name": "m_orderCount",
      "outputs": [
        {
          "name": "",
          "type": "uint256"
        }
      ],
      "payable": false,
      "stateMutability": "view",
      "type": "function"
    },
    {
      "constant": true,
      "inputs": [],
      "name": "ASK_STAKE_RATIO",
      "outputs": [
        {
          "name": "",
          "type": "uint256"
        }
      ],
      "payable": false,
      "stateMutability": "view",
      "type": "function"
    },
    {
      "inputs": [
        {
          "name": "_iexecHubAddress",
          "type": "address"
        }
      ],
      "payable": false,
      "stateMutability": "nonpayable",
      "type": "constructor"
    },
    {
      "anonymous": false,
      "inputs": [
        {
          "indexed": false,
          "name": "marketorderIdx",
          "type": "uint256"
        }
      ],
      "name": "MarketOrderCreated",
      "type": "event"
    },
    {
      "anonymous": false,
      "inputs": [
        {
          "indexed": false,
          "name": "marketorderIdx",
          "type": "uint256"
        }
      ],
      "name": "MarketOrderClosed",
      "type": "event"
    },
    {
      "anonymous": false,
      "inputs": [
        {
          "indexed": false,
          "name": "marketorderIdx",
          "type": "uint256"
        },
        {
          "indexed": false,
          "name": "requester",
          "type": "address"
        }
      ],
      "name": "MarketOrderAskConsume",
      "type": "event"
    },
    {
      "constant": false,
      "inputs": [
        {
          "name": "_direction",
          "type": "uint8"
        },
        {
          "name": "_category",
          "type": "uint256"
        },
        {
          "name": "_trust",
          "type": "uint256"
        },
        {
          "name": "_value",
          "type": "uint256"
        },
        {
          "name": "_workerpool",
          "type": "address"
        },
        {
          "name": "_volume",
          "type": "uint256"
        }
      ],
      "name": "createMarketOrder",
      "outputs": [
        {
          "name": "",
          "type": "uint256"
        }
      ],
      "payable": false,
      "stateMutability": "nonpayable",
      "type": "function"
    },
    {
      "constant": false,
      "inputs": [
        {
          "name": "_marketorderIdx",
          "type": "uint256"
        }
      ],
      "name": "closeMarketOrder",
      "outputs": [
        {
          "name": "",
          "type": "bool"
        }
      ],
      "payable": false,
      "stateMutability": "nonpayable",
      "type": "function"
    },
    {
      "constant": false,
      "inputs": [
        {
          "name": "_marketorderIdx",
          "type": "uint256"
        },
        {
          "name": "_requester",
          "type": "address"
        },
        {
          "name": "_workerpool",
          "type": "address"
        }
      ],
      "name": "consumeMarketOrderAsk",
      "outputs": [
        {
          "name": "",
          "type": "bool"
        }
      ],
      "payable": false,
      "stateMutability": "nonpayable",
      "type": "function"
    },
    {
      "constant": true,
      "inputs": [
        {
          "name": "_marketorderIdx",
          "type": "uint256"
        }
      ],
      "name": "existingMarketOrder",
      "outputs": [
        {
          "name": "marketOrderExist",
          "type": "bool"
        }
      ],
      "payable": false,
      "stateMutability": "view",
      "type": "function"
    },
    {
      "constant": true,
      "inputs": [
        {
          "name": "_marketorderIdx",
          "type": "uint256"
        }
      ],
      "name": "getMarketOrderValue",
      "outputs": [
        {
          "name": "",
          "type": "uint256"
        }
      ],
      "payable": false,
      "stateMutability": "view",
      "type": "function"
    },
    {
      "constant": true,
      "inputs": [
        {
          "name": "_marketorderIdx",
          "type": "uint256"
        }
      ],
      "name": "getMarketOrderWorkerpoolOwner",
      "outputs": [
        {
          "name": "",
          "type": "address"
        }
      ],
      "payable": false,
      "stateMutability": "view",
      "type": "function"
    },
    {
      "constant": true,
      "inputs": [
        {
          "name": "_marketorderIdx",
          "type": "uint256"
        }
      ],
      "name": "getMarketOrderCategory",
      "outputs": [
        {
          "name": "",
          "type": "uint256"
        }
      ],
      "payable": false,
      "stateMutability": "view",
      "type": "function"
    },
    {
      "constant": true,
      "inputs": [
        {
          "name": "_marketorderIdx",
          "type": "uint256"
        }
      ],
      "name": "getMarketOrderTrust",
      "outputs": [
        {
          "name": "",
          "type": "uint256"
        }
      ],
      "payable": false,
      "stateMutability": "view",
      "type": "function"
    },
    {
      "constant": true,
      "inputs": [
        {
          "name": "_marketorderIdx",
          "type": "uint256"
        }
      ],
      "name": "getMarketOrder",
      "outputs": [
        {
          "name": "direction",
          "type": "uint8"
        },
        {
          "name": "category",
          "type": "uint256"
        },
        {
          "name": "trust",
          "type": "uint256"
        },
        {
          "name": "value",
          "type": "uint256"
        },
        {
          "name": "volume",
          "type": "uint256"
        },
        {
          "name": "remaining",
          "type": "uint256"
        },
        {
          "name": "workerpool",
          "type": "address"
        },
        {
          "name": "workerpoolOwner",
          "type": "address"
        }
      ],
      "payable": false,
      "stateMutability": "view",
      "type": "function"
    }
  ],
  "bytecode": "0x608060405234801561001057600080fd5b50604051602080610b63833981016040525180600160a060020a038116151561003857600080fd5b60008054600160a060020a03909216600160a060020a031992831681179091556001805490921617905550610af1806100726000396000f3006080604052600436106100a05763ffffffff60e060020a60003504166302a63c2881146100a557806324026bfb146100e3578063270a8ef71461010d57806338c4090b146101255780633ab679561461013d5780634cfddcfb146101b457806355d66c3e146101cc57806360f75f3b1461020057806369c7c180146102185780636b14ea361461022d578063ea0b259014610242578063eb3721be14610275575b600080fd5b3480156100b157600080fd5b506100cf600435600160a060020a036024358116906044351661028d565b604080519115158252519081900360200190f35b3480156100ef57600080fd5b506100fb60043561042c565b60408051918252519081900360200190f35b34801561011957600080fd5b506100cf600435610458565b34801561013157600080fd5b506100fb60043561046e565b34801561014957600080fd5b5061015560043561049b565b6040518089600381111561016557fe5b60ff1681526020810198909852506040808801969096526060870194909452608086019290925260a0850152600160a060020a0390811660c08501521660e08301525190819003610100019150f35b3480156101c057600080fd5b506100fb6004356104f1565b3480156101d857600080fd5b506101e460043561051d565b60408051600160a060020a039092168252519081900360200190f35b34801561020c57600080fd5b506100cf600435610552565b34801561022457600080fd5b506100fb6106ad565b34801561023957600080fd5b506100fb6106b3565b34801561024e57600080fd5b506100fb60ff60043516602435604435606435600160a060020a036084351660a4356106b8565b34801561028157600080fd5b506101556004356109a5565b60008054819033600160a060020a039081169116146102ab57600080fd5b5060008481526003602052604090206002815460ff1660038111156102cc57fe5b146102d657600080fd5b60058101546000106102e757600080fd5b6006810154600160a060020a0384811691161461030357600080fd5b600581015461031990600163ffffffff610a2516565b60058201819055151561033257805460ff191660031781555b6001546003820154604080517fac26109e000000000000000000000000000000000000000000000000000000008152600160a060020a03888116600483015260248201939093529051919092169163ac26109e9160448083019260209291908290030181600087803b1580156103a757600080fd5b505af11580156103bb573d6000803e3d6000fd5b505050506040513d60208110156103d157600080fd5b505115156103de57600080fd5b60408051868152600160a060020a038616602082015281517fe15b7f1dd90867f2f9084033184322ae15a1572828d3d2a5a2dca5f6038332ba929181900390910190a1506001949350505050565b600061043782610458565b151561044257600080fd5b5060009081526003602052604090206002015490565b6000908152600360205260408120600101541190565b600061047982610458565b151561048457600080fd5b506000908152600360208190526040909120015490565b60036020819052600091825260409091208054600182015460028301549383015460048401546005850154600686015460079096015460ff9095169693959394929391929091600160a060020a03908116911688565b60006104fc82610458565b151561050757600080fd5b5060009081526003602052604090206001015490565b600061052882610458565b151561053357600080fd5b50600090815260036020526040902060070154600160a060020a031690565b60008181526003602052604081206002815460ff16600381111561057257fe5b14156100a057600781015433600160a060020a0390811691161461059557600080fd5b600154600782015460058301546003840154600160a060020a039384169363b7b6e9789316916105dc916105d090601e63ffffffff610a3716565b9063ffffffff610a4c16565b6040518363ffffffff1660e060020a0281526004018083600160a060020a0316600160a060020a0316815260200182815260200192505050602060405180830381600087803b15801561062e57600080fd5b505af1158015610642573d6000803e3d6000fd5b505050506040513d602081101561065857600080fd5b5051151561066557600080fd5b805460ff191660031781556040805184815290517f9a05087bc2e92d4e31e031af3ffb9da7e4dffd4be5573811330541cc559315fe916020908290030190a150600192915050565b60025481565b601e81565b600154604080517f32baa8d90000000000000000000000000000000000000000000000000000000081526004810188905290516000928392600160a060020a03909116916332baa8d99160248082019260209290919082900301818787803b15801561072357600080fd5b505af1158015610737573d6000803e3d6000fd5b505050506040513d602081101561074d57600080fd5b5051151561075a57600080fd5b6000831161076757600080fd5b60025461077b90600163ffffffff610a8216565b6002819055600090815260036020819052604090912080549092508991839160ff19169060019084908111156107ad57fe5b02179055506001810187905560028082018790556003820186905560048201849055600582018490558860038111156107e257fe5b14156100a05733600160a060020a031684600160a060020a031663deff41c16040518163ffffffff1660e060020a028152600401602060405180830381600087803b15801561083057600080fd5b505af1158015610844573d6000803e3d6000fd5b505050506040513d602081101561085a57600080fd5b5051600160a060020a03161461086f57600080fd5b600154600160a060020a031663ac26109e33610896866105d08a601e63ffffffff610a3716565b6040518363ffffffff1660e060020a0281526004018083600160a060020a0316600160a060020a0316815260200182815260200192505050602060405180830381600087803b1580156108e857600080fd5b505af11580156108fc573d6000803e3d6000fd5b505050506040513d602081101561091257600080fd5b5051151561091f57600080fd5b600681018054600160a060020a0380871673ffffffffffffffffffffffffffffffffffffffff1992831617909255600783018054339093169290911691909117905560025460408051918252517fb0be9c5566c7b426b2e5378a75c24af27818f33e0b6aa5ea6208562c144c98f19181900360200190a150506002549695505050505050565b60008060008060008060008060006109bc8a610458565b15156109c757600080fd5b505050600096875250506003602081905260409095208054600182015460028301549783015460048401546005850154600686015460079096015460ff9095169b939a995091975095509350600160a060020a039283169290911690565b600082821115610a3157fe5b50900390565b6000610a4583836064610a91565b9392505050565b600080831515610a5f5760009150610a7b565b50828202828482811515610a6f57fe5b0414610a7757fe5b8091505b5092915050565b600082820183811015610a7757fe5b6000610aa6610aa08585610a4c565b83610aae565b949350505050565b6000808284811515610abc57fe5b049493505050505600a165627a7a723058207c2ef21da1d25a3a513eef0c7ee24d3790d16d6d4ebc0d3190775ba67db43e190029",
  "source": "pragma solidity ^0.4.21;\nimport './IexecLib.sol';\nimport './IexecHubAccessor.sol';\nimport './WorkerPool.sol';\nimport \"./SafeMathOZ.sol\";\n\ncontract Marketplace is IexecHubAccessor\n{\n\tusing SafeMathOZ for uint256;\n\n\t/**\n\t * Marketplace\n\t */\n\tuint                                 public m_orderCount;\n\tmapping(uint =>IexecLib.MarketOrder) public m_orderBook;\n\n\tuint256 public constant ASK_STAKE_RATIO  = 30;\n\n\t/**\n\t * Events\n\t */\n\tevent MarketOrderCreated   (uint marketorderIdx);\n\tevent MarketOrderClosed    (uint marketorderIdx);\n\tevent MarketOrderAskConsume(uint marketorderIdx, address requester);\n\n\n\t/**\n\t * Constructor\n\t */\n\tfunction Marketplace(address _iexecHubAddress)\n\tIexecHubAccessor(_iexecHubAddress)\n\tpublic\n\t{\n\t}\n\n\t/**\n\t * Market orders\n\t */\n\tfunction createMarketOrder(\n\t\tIexecLib.MarketOrderDirectionEnum _direction,\n\t\tuint256 _category,\n\t\tuint256 _trust,\n\t\tuint256 _value,\n\t\taddress _workerpool,\n\t\tuint256 _volume)\n\tpublic returns (uint)\n\t{\n\t\trequire(iexecHubInterface.existingCategory(_category));\n\t\trequire(_volume >0);\n\t\tm_orderCount = m_orderCount.add(1);\n\t\tIexecLib.MarketOrder storage marketorder    = m_orderBook[m_orderCount];\n\t\tmarketorder.direction      = _direction;\n\t\tmarketorder.category       = _category;\n\t\tmarketorder.trust          = _trust;\n\t\tmarketorder.value          = _value;\n\t\tmarketorder.volume         = _volume;\n\t\tmarketorder.remaining      = _volume;\n\n\t\tif (_direction == IexecLib.MarketOrderDirectionEnum.ASK)\n\t\t{\n\t\t\trequire(WorkerPool(_workerpool).m_owner() == msg.sender);\n\n\t\t\trequire(iexecHubInterface.lockForOrder(msg.sender, _value.percentage(ASK_STAKE_RATIO).mul(_volume))); // mul must be done after percentage to avoid rounding errors\n\t\t\tmarketorder.workerpool      = _workerpool;\n\t\t\tmarketorder.workerpoolOwner = msg.sender;\n\t\t}\n\t\telse\n\t\t{\n\t\t\t// no BID implementation\n\t\t\trevert();\n\t\t}\n\t\temit MarketOrderCreated(m_orderCount);\n\t\treturn m_orderCount;\n\t}\n\n\tfunction closeMarketOrder(uint256 _marketorderIdx) public returns (bool)\n\t{\n\t\tIexecLib.MarketOrder storage marketorder = m_orderBook[_marketorderIdx];\n\t\tif (marketorder.direction == IexecLib.MarketOrderDirectionEnum.ASK)\n\t\t{\n\t\t\trequire(marketorder.workerpoolOwner == msg.sender);\n\t\t\trequire(iexecHubInterface.unlockForOrder(marketorder.workerpoolOwner, marketorder.value.percentage(ASK_STAKE_RATIO).mul(marketorder.remaining))); // mul must be done after percentage to avoid rounding errors\n\t\t}\n\t\telse\n\t\t{\n\t\t\t// no BID implementation\n\t\t\trevert();\n\t\t}\n\t\tmarketorder.direction = IexecLib.MarketOrderDirectionEnum.CLOSED;\n\t\temit MarketOrderClosed(_marketorderIdx);\n\t\treturn true;\n\t}\n\n\n\t/**\n\t * Assets consumption\n\t */\n\tfunction consumeMarketOrderAsk(\n\t\tuint256 _marketorderIdx,\n\t\taddress _requester,\n\t\taddress _workerpool)\n\tpublic onlyIexecHub returns (bool)\n\t{\n\t\tIexecLib.MarketOrder storage marketorder = m_orderBook[_marketorderIdx];\n\t\trequire(marketorder.direction  == IexecLib.MarketOrderDirectionEnum.ASK);\n\t\trequire(marketorder.remaining  >  0);\n\t\trequire(marketorder.workerpool == _workerpool);\n\n\t\tmarketorder.remaining = marketorder.remaining.sub(1);\n\t\tif (marketorder.remaining == 0)\n\t\t{\n\t\t\tmarketorder.direction = IexecLib.MarketOrderDirectionEnum.CLOSED;\n\t\t}\n\t\trequire(iexecHubInterface.lockForOrder(_requester, marketorder.value));\n\t\temit MarketOrderAskConsume(_marketorderIdx, _requester);\n\t\treturn true;\n\t}\n\n\tfunction existingMarketOrder(uint256 _marketorderIdx) public view  returns (bool marketOrderExist)\n\t{\n\t\treturn m_orderBook[_marketorderIdx].category > 0;\n\t}\n\n\t/**\n\t * Views\n\t */\n\tfunction getMarketOrderValue(uint256 _marketorderIdx) public view returns (uint256)\n\t{\n\t\trequire(existingMarketOrder(_marketorderIdx)); // no silent value returned\n\t\treturn m_orderBook[_marketorderIdx].value;\n\t}\n\tfunction getMarketOrderWorkerpoolOwner(uint256 _marketorderIdx) public view returns (address)\n\t{\n\t\trequire(existingMarketOrder(_marketorderIdx)); // no silent value returned\n\t\treturn m_orderBook[_marketorderIdx].workerpoolOwner;\n\t}\n\tfunction getMarketOrderCategory(uint256 _marketorderIdx) public view returns (uint256)\n\t{\n\t\trequire(existingMarketOrder(_marketorderIdx)); // no silent value returned\n\t\treturn m_orderBook[_marketorderIdx].category;\n\t}\n\tfunction getMarketOrderTrust(uint256 _marketorderIdx) public view returns (uint256)\n\t{\n\t\trequire(existingMarketOrder(_marketorderIdx)); // no silent value returned\n\t\treturn m_orderBook[_marketorderIdx].trust;\n\t}\n\tfunction getMarketOrder(uint256 _marketorderIdx) public view returns\n\t(\n\t\tIexecLib.MarketOrderDirectionEnum direction,\n\t\tuint256 category,       // runtime selection\n\t\tuint256 trust,          // for PoCo\n\t\tuint256 value,          // value/cost/price\n\t\tuint256 volume,         // quantity of instances (total)\n\t\tuint256 remaining,      // remaining instances\n\t\taddress workerpool,     // BID can use null for any\n\t\taddress workerpoolOwner)\n\t{\n\t\trequire(existingMarketOrder(_marketorderIdx)); // no silent value returned\n\t\tIexecLib.MarketOrder storage marketorder = m_orderBook[_marketorderIdx];\n\t\treturn (\n\t\t\tmarketorder.direction,\n\t\t\tmarketorder.category,\n\t\t\tmarketorder.trust,\n\t\t\tmarketorder.value,\n\t\t\tmarketorder.volume,\n\t\t\tmarketorder.remaining,\n\t\t\tmarketorder.workerpool,\n\t\t\tmarketorder.workerpoolOwner\n\t\t);\n\t}\n\n}\n",
  "sourcePath": "/home/victor/code/github.com/iExecBlockchainComputing/PoCo/contracts/Marketplace.sol",
  "compiler": {
    "name": "solc",
    "version": "0.4.23+commit.124ca40d.Emscripten.clang"
  },
  "schemaVersion": "2.0.0",
  "updatedAt": "2018-04-30T15:30:34.694Z"
}