{
  "contractName": "RLC",
  "abi": [
    {
      "constant": true,
      "inputs": [],
      "name": "name",
      "outputs": [
        {
          "name": "",
          "type": "string"
        }
      ],
      "payable": false,
      "stateMutability": "view",
      "type": "function"
    },
    {
      "constant": true,
      "inputs": [],
      "name": "totalSupply",
      "outputs": [
        {
          "name": "",
          "type": "uint256"
        }
      ],
      "payable": false,
      "stateMutability": "view",
      "type": "function"
    },
    {
      "constant": true,
      "inputs": [],
      "name": "decimals",
      "outputs": [
        {
          "name": "",
          "type": "uint8"
        }
      ],
      "payable": false,
      "stateMutability": "view",
      "type": "function"
    },
    {
      "constant": true,
      "inputs": [],
      "name": "initialSupply",
      "outputs": [
        {
          "name": "",
          "type": "uint256"
        }
      ],
      "payable": false,
      "stateMutability": "view",
      "type": "function"
    },
    {
      "constant": true,
      "inputs": [],
      "name": "version",
      "outputs": [
        {
          "name": "",
          "type": "string"
        }
      ],
      "payable": false,
      "stateMutability": "view",
      "type": "function"
    },
    {
      "constant": true,
      "inputs": [],
      "name": "owner",
      "outputs": [
        {
          "name": "",
          "type": "address"
        }
      ],
      "payable": false,
      "stateMutability": "view",
      "type": "function"
    },
    {
      "constant": true,
      "inputs": [],
      "name": "symbol",
      "outputs": [
        {
          "name": "",
          "type": "string"
        }
      ],
      "payable": false,
      "stateMutability": "view",
      "type": "function"
    },
    {
      "constant": true,
      "inputs": [],
      "name": "locked",
      "outputs": [
        {
          "name": "",
          "type": "bool"
        }
      ],
      "payable": false,
      "stateMutability": "view",
      "type": "function"
    },
    {
      "constant": false,
      "inputs": [
        {
          "name": "newOwner",
          "type": "address"
        }
      ],
      "name": "transferOwnership",
      "outputs": [],
      "payable": false,
      "stateMutability": "nonpayable",
      "type": "function"
    },
    {
      "anonymous": false,
      "inputs": [
        {
          "indexed": true,
          "name": "from",
          "type": "address"
        },
        {
          "indexed": true,
          "name": "to",
          "type": "address"
        },
        {
          "indexed": false,
          "name": "value",
          "type": "uint256"
        }
      ],
      "name": "Transfer",
      "type": "event"
    },
    {
      "anonymous": false,
      "inputs": [
        {
          "indexed": true,
          "name": "owner",
          "type": "address"
        },
        {
          "indexed": true,
          "name": "spender",
          "type": "address"
        },
        {
          "indexed": false,
          "name": "value",
          "type": "uint256"
        }
      ],
      "name": "Approval",
      "type": "event"
    },
    {
      "constant": false,
      "inputs": [
        {
          "name": "faucetAgent1",
          "type": "address"
        },
        {
          "name": "faucetAgent2",
          "type": "address"
        },
        {
          "name": "faucetAgent3",
          "type": "address"
        }
      ],
      "name": "FaucetRLC",
      "outputs": [],
      "payable": false,
      "stateMutability": "nonpayable",
      "type": "function"
    },
    {
      "constant": false,
      "inputs": [
        {
          "name": "_to",
          "type": "address"
        },
        {
          "name": "_value",
          "type": "uint256"
        }
      ],
      "name": "refill",
      "outputs": [
        {
          "name": "",
          "type": "bool"
        }
      ],
      "payable": false,
      "stateMutability": "nonpayable",
      "type": "function"
    },
    {
      "constant": false,
      "inputs": [
        {
          "name": "_giver",
          "type": "address"
        },
        {
          "name": "_spender",
          "type": "address"
        },
        {
          "name": "_value",
          "type": "uint256"
        }
      ],
      "name": "forceApprove",
      "outputs": [
        {
          "name": "",
          "type": "bool"
        }
      ],
      "payable": false,
      "stateMutability": "nonpayable",
      "type": "function"
    },
    {
      "constant": false,
      "inputs": [
        {
          "name": "_toburn",
          "type": "address"
        },
        {
          "name": "_value",
          "type": "uint256"
        }
      ],
      "name": "forceBurn",
      "outputs": [
        {
          "name": "",
          "type": "bool"
        }
      ],
      "payable": false,
      "stateMutability": "nonpayable",
      "type": "function"
    },
    {
      "constant": false,
      "inputs": [
        {
          "name": "_value",
          "type": "uint256"
        }
      ],
      "name": "burn",
      "outputs": [
        {
          "name": "",
          "type": "bool"
        }
      ],
      "payable": false,
      "stateMutability": "nonpayable",
      "type": "function"
    },
    {
      "constant": false,
      "inputs": [
        {
          "name": "_to",
          "type": "address"
        },
        {
          "name": "_value",
          "type": "uint256"
        }
      ],
      "name": "transfer",
      "outputs": [
        {
          "name": "",
          "type": "bool"
        }
      ],
      "payable": false,
      "stateMutability": "nonpayable",
      "type": "function"
    },
    {
      "constant": false,
      "inputs": [
        {
          "name": "_from",
          "type": "address"
        },
        {
          "name": "_to",
          "type": "address"
        },
        {
          "name": "_value",
          "type": "uint256"
        }
      ],
      "name": "transferFrom",
      "outputs": [
        {
          "name": "",
          "type": "bool"
        }
      ],
      "payable": false,
      "stateMutability": "nonpayable",
      "type": "function"
    },
    {
      "constant": true,
      "inputs": [
        {
          "name": "_owner",
          "type": "address"
        }
      ],
      "name": "balanceOf",
      "outputs": [
        {
          "name": "balance",
          "type": "uint256"
        }
      ],
      "payable": false,
      "stateMutability": "view",
      "type": "function"
    },
    {
      "constant": false,
      "inputs": [
        {
          "name": "_spender",
          "type": "address"
        },
        {
          "name": "_value",
          "type": "uint256"
        }
      ],
      "name": "approve",
      "outputs": [
        {
          "name": "",
          "type": "bool"
        }
      ],
      "payable": false,
      "stateMutability": "nonpayable",
      "type": "function"
    },
    {
      "constant": false,
      "inputs": [
        {
          "name": "_spender",
          "type": "address"
        },
        {
          "name": "_value",
          "type": "uint256"
        },
        {
          "name": "_extraData",
          "type": "bytes"
        }
      ],
      "name": "approveAndCall",
      "outputs": [],
      "payable": false,
      "stateMutability": "nonpayable",
      "type": "function"
    },
    {
      "constant": true,
      "inputs": [
        {
          "name": "_owner",
          "type": "address"
        },
        {
          "name": "_spender",
          "type": "address"
        }
      ],
      "name": "allowance",
      "outputs": [
        {
          "name": "remaining",
          "type": "uint256"
        }
      ],
      "payable": false,
      "stateMutability": "view",
      "type": "function"
    }
  ],
  "bytecode": "0x60c0604052600460808190527f76302e310000000000000000000000000000000000000000000000000000000060a090815261003e916005919061005f565b5060018054600160a060020a03191633600160a060020a03161790556100fa565b828054600181600116156101000203166002900490600052602060002090601f016020900481019282601f106100a057805160ff19168380011785556100cd565b828001600101855582156100cd579182015b828111156100cd5782518255916020019190600101906100b2565b506100d99291506100dd565b5090565b6100f791905b808211156100d957600081556001016100e3565b90565b610e09806101096000396000f3006080604052600436106101115763ffffffff7c010000000000000000000000000000000000000000000000000000000060003504166306fdde038114610116578063095ea7b3146101a05780630aa3ae7e146101d857806318160ddd146101fc57806323b872dd14610223578063313ce5671461024d578063378dc3dc1461027857806342966c681461028d57806354fd4d50146102a557806361f49ed6146102ba57806370a08231146102e45780638da5cb5b1461030557806395d89b4114610336578063a9059cbb1461034b578063aea817751461036f578063cae9ca511461039e578063cf30901214610407578063dd62ed3e1461041c578063e2d6f63414610443578063f2fde38b14610467575b600080fd5b34801561012257600080fd5b5061012b610488565b6040805160208082528351818301528351919283929083019185019080838360005b8381101561016557818101518382015260200161014d565b50505050905090810190601f1680156101925780820380516001836020036101000a031916815260200191505b509250505060405180910390f35b3480156101ac57600080fd5b506101c4600160a060020a0360043516602435610513565b604080519115158252519081900360200190f35b3480156101e457600080fd5b506101c4600160a060020a036004351660243561057e565b34801561020857600080fd5b5061021161061f565b60408051918252519081900360200190f35b34801561022f57600080fd5b506101c4600160a060020a0360043581169060243516604435610625565b34801561025957600080fd5b50610262610714565b6040805160ff9092168252519081900360200190f35b34801561028457600080fd5b5061021161071d565b34801561029957600080fd5b506101c4600435610723565b3480156102b157600080fd5b5061012b6107a6565b3480156102c657600080fd5b506101c4600160a060020a0360043581169060243516604435610801565b3480156102f057600080fd5b50610211600160a060020a0360043516610883565b34801561031157600080fd5b5061031a61089e565b60408051600160a060020a039092168252519081900360200190f35b34801561034257600080fd5b5061012b6108ad565b34801561035757600080fd5b506101c4600160a060020a0360043516602435610908565b34801561037b57600080fd5b5061039c600160a060020a03600435811690602435811690604435166109a9565b005b3480156103aa57600080fd5b50604080516020600460443581810135601f810184900484028501840190955284845261039c948235600160a060020a0316946024803595369594606494920191908190840183828082843750949750610a929650505050505050565b34801561041357600080fd5b506101c4610bc1565b34801561042857600080fd5b50610211600160a060020a0360043581169060243516610bca565b34801561044f57600080fd5b506101c4600160a060020a0360043516602435610bf5565b34801561047357600080fd5b5061039c600160a060020a0360043516610c93565b6002805460408051602060018416156101000260001901909316849004601f8101849004840282018401909252818152929183018282801561050b5780601f106104e05761010080835404028352916020019161050b565b820191906000526020600020905b8154815290600101906020018083116104ee57829003601f168201915b505050505081565b600160a060020a033381166000818152600a6020908152604080832094871680845294825280832086905580518681529051929493927f8c5be1e5ebec7d5bd14f71427d1e84f3dd0314c0f7b2291e5b200ac8c7c3b925929181900390910190a35060015b92915050565b60015460009033600160a060020a039081169116141561057857600160a060020a0383166000908152600960205260409020546105bb9083610ce5565b600160a060020a0384166000908152600960205260409020556007546105e19083610ce5565b600755604080518381529051600160a060020a03808616923390911691600080516020610dbe8339815191529181900360200190a350600192915050565b60075481565b600160a060020a038084166000908152600a602090815260408083203385168452825280832054938616835260099091528120549091906106669084610ce5565b600160a060020a0380861660009081526009602052604080822093909355908716815220546106959084610d02565b600160a060020a0386166000908152600960205260409020556106b88184610d02565b600160a060020a038087166000818152600a6020908152604080832033861684528252918290209490945580518781529051928816939192600080516020610dbe833981519152929181900390910190a3506001949350505050565b60045460ff1681565b60065481565b600160a060020a0333166000908152600960205260408120546107469083610d02565b600160a060020a03331660009081526009602052604090205560075461076c9083610d02565b600755604080518381529051600091600160a060020a03331691600080516020610dbe8339815191529181900360200190a3506001919050565b6005805460408051602060026001851615610100026000190190941693909304601f8101849004840282018401909252818152929183018282801561050b5780601f106104e05761010080835404028352916020019161050b565b60015460009033600160a060020a039081169116141561087c57600160a060020a038085166000818152600a6020908152604080832094881680845294825291829020869055815186815291517f8c5be1e5ebec7d5bd14f71427d1e84f3dd0314c0f7b2291e5b200ac8c7c3b9259281900390910190a35060015b9392505050565b600160a060020a031660009081526009602052604090205490565b600154600160a060020a031681565b6003805460408051602060026001851615610100026000190190941693909304601f8101849004840282018401909252818152929183018282801561050b5780601f106104e05761010080835404028352916020019161050b565b600160a060020a03331660009081526009602052604081205461092b9083610d02565b600160a060020a03338116600090815260096020526040808220939093559085168152205461095a9083610ce5565b600160a060020a03808516600081815260096020908152604091829020949094558051868152905191933390931692600080516020610dbe83398151915292918290030190a350600192915050565b6701351609ff7580006006819055600755600160a060020a03808416600090815260096020908152604080832066670758aa7c800090819055868516845281842081905593851683529182902092909255805180820190915260148082527f6945782e6563204e6574776f726b20546f6b656e00000000000000000000000091909201908152610a3c9160029190610d22565b506040805180820190915260038082527f524c4300000000000000000000000000000000000000000000000000000000006020909201918252610a7f9181610d22565b50506004805460ff191660091790555050565b82610a9d8184610513565b15610bbb5780600160a060020a0316638f4ffcb1338530866040518563ffffffff167c01000000000000000000000000000000000000000000000000000000000281526004018085600160a060020a0316600160a060020a0316815260200184815260200183600160a060020a0316600160a060020a0316815260200180602001828103825283818151815260200191508051906020019080838360005b83811015610b53578181015183820152602001610b3b565b50505050905090810190601f168015610b805780820380516001836020036101000a031916815260200191505b5095505050505050600060405180830381600087803b158015610ba257600080fd5b505af1158015610bb6573d6000803e3d6000fd5b505050505b50505050565b60085460ff1681565b600160a060020a039182166000908152600a6020908152604080832093909416825291909152205490565b60015460009033600160a060020a039081169116141561057857600160a060020a038316600090815260096020526040902054610c329083610d02565b600160a060020a038416600090815260096020526040902055600754610c589083610d02565b600755604080518381529051600091600160a060020a03861691600080516020610dbe8339815191529181900360200190a350600192915050565b60015433600160a060020a0390811691161415610ce257600160a060020a03811615610ce2576001805473ffffffffffffffffffffffffffffffffffffffff1916600160a060020a0383161790555b50565b600082820161087c848210801590610cfd5750838210155b610d16565b6000610d1083831115610d16565b50900390565b801515610ce257600080fd5b828054600181600116156101000203166002900490600052602060002090601f016020900481019282601f10610d6357805160ff1916838001178555610d90565b82800160010185558215610d90579182015b82811115610d90578251825591602001919060010190610d75565b50610d9c929150610da0565b5090565b610dba91905b80821115610d9c5760008155600101610da6565b905600ddf252ad1be2c89b69c2b068fc378daa952ba7f163c4a11628f55a4df523b3efa165627a7a723058205c11f8692751925dfb9063a39f547dfc50d5dd6ed9a465ccfb1abc97618c86720029",
  "source": "pragma solidity ^0.4.8;\n//v0.1.0\nimport \"./Ownable.sol\";\nimport \"./SafeMath.sol\";\nimport \"./ERC20.sol\";\nimport \"./TokenSpender.sol\";\ncontract RLC is ERC20, SafeMath, Ownable {\n\n    /* Public variables of the token */\n  string public name;       //fancy name\n  string public symbol;\n  uint8 public decimals;    //How many decimals to show.\n  string public version = 'v0.1';\n  uint public initialSupply;\n  uint public totalSupply;\n  bool public locked;\n  //uint public unlockBlock;\n\n  mapping(address => uint) balances;\n  mapping (address => mapping (address => uint)) allowed;\n\n\n  /*\n   *  The FaucetRLC Token created with the time at which the crowdsale end\n   */\n\n  function FaucetRLC(address faucetAgent1, address faucetAgent2, address faucetAgent3) {\n\n    initialSupply = 87000000000000000;\n    totalSupply = initialSupply;\n    balances[faucetAgent1] = 29000000000000000;\n    balances[faucetAgent2] = 29000000000000000;\n    balances[faucetAgent3] = 29000000000000000;\n    name = 'iEx.ec Network Token';        // Set the name for display purposes\n    symbol = 'RLC';                       // Set the symbol for display purposes\n    decimals = 9;                        // Amount of decimals for display purposes\n  }\n\n\n  // function for Test net only. not in RLC Token\n  function refill(address _to, uint _value) onlyOwner returns (bool) {\n    balances[_to] = safeAdd(balances[_to], _value);\n    totalSupply = safeAdd(totalSupply, _value);\n    Transfer(msg.sender, _to, _value);\n    return true;\n  }\n\n  // function for Test net only. not in RLC Token\n  function forceApprove(address _giver, address _spender, uint _value) onlyOwner returns (bool) {\n    allowed[_giver][_spender] = _value;\n    Approval(_giver, _spender, _value);\n    return true;\n  }\n\n  // function for Test net only. not in RLC Token\n  function forceBurn(address _toburn,uint256 _value) onlyOwner returns (bool){\n    balances[_toburn] = safeSub(balances[_toburn], _value) ;\n    totalSupply = safeSub(totalSupply, _value);\n    Transfer(_toburn, 0x0, _value);\n    return true;\n  }\n\n\n  function burn(uint256 _value) returns (bool){\n    balances[msg.sender] = safeSub(balances[msg.sender], _value) ;\n    totalSupply = safeSub(totalSupply, _value);\n    Transfer(msg.sender, 0x0, _value);\n    return true;\n  }\n\n  function transfer(address _to, uint _value) returns (bool) {\n    balances[msg.sender] = safeSub(balances[msg.sender], _value);\n    balances[_to] = safeAdd(balances[_to], _value);\n    Transfer(msg.sender, _to, _value);\n    return true;\n  }\n\n  function transferFrom(address _from, address _to, uint _value) returns (bool) {\n    var _allowance = allowed[_from][msg.sender];\n\n    balances[_to] = safeAdd(balances[_to], _value);\n    balances[_from] = safeSub(balances[_from], _value);\n    allowed[_from][msg.sender] = safeSub(_allowance, _value);\n    Transfer(_from, _to, _value);\n    return true;\n  }\n\n  function balanceOf(address _owner) constant returns (uint balance) {\n    return balances[_owner];\n  }\n\n  function approve(address _spender, uint _value) returns (bool) {\n    allowed[msg.sender][_spender] = _value;\n    Approval(msg.sender, _spender, _value);\n    return true;\n  }\n\n    /* Approve and then comunicate the approved contract in a single tx */\n  function approveAndCall(address _spender, uint256 _value, bytes _extraData){\n      TokenSpender spender = TokenSpender(_spender);\n      if (approve(_spender, _value)) {\n          spender.receiveApproval(msg.sender, _value, this, _extraData);\n      }\n  }\n\n  function allowance(address _owner, address _spender) constant returns (uint remaining) {\n    return allowed[_owner][_spender];\n  }\n\n}\n",
  "sourcePath": "rlc-faucet-contract/contracts/RLC.sol",
  "compiler": {
    "name": "solc",
    "version": "0.4.23+commit.124ca40d.Emscripten.clang"
  },
  "schemaVersion": "2.0.0",
  "updatedAt": "2018-04-30T15:30:34.748Z"
}