{
  "contractName": "TestSha",
  "abi": [
    {
      "anonymous": false,
      "inputs": [
        {
          "indexed": false,
          "name": "result",
          "type": "bytes32"
        },
        {
          "indexed": false,
          "name": "input",
          "type": "bytes32"
        }
      ],
      "name": "SolidityKeccak256FromBytes",
      "type": "event"
    },
    {
      "anonymous": false,
      "inputs": [
        {
          "indexed": false,
          "name": "result",
          "type": "bytes32"
        },
        {
          "indexed": false,
          "name": "input",
          "type": "string"
        }
      ],
      "name": "SolidityKeccak256FromString",
      "type": "event"
    },
    {
      "anonymous": false,
      "inputs": [
        {
          "indexed": false,
          "name": "result",
          "type": "bytes32"
        },
        {
          "indexed": false,
          "name": "input",
          "type": "address"
        }
      ],
      "name": "SolidityKeccak256FromAddress",
      "type": "event"
    },
    {
      "anonymous": false,
      "inputs": [
        {
          "indexed": false,
          "name": "input",
          "type": "bytes32"
        },
        {
          "indexed": false,
          "name": "voter",
          "type": "address"
        },
        {
          "indexed": false,
          "name": "vote",
          "type": "bytes32"
        },
        {
          "indexed": false,
          "name": "sign",
          "type": "bytes32"
        }
      ],
      "name": "SignedVote",
      "type": "event"
    },
    {
      "constant": false,
      "inputs": [
        {
          "name": "_input",
          "type": "bytes32"
        }
      ],
      "name": "testSolidityKeccak256FromBytes",
      "outputs": [],
      "payable": false,
      "stateMutability": "nonpayable",
      "type": "function"
    },
    {
      "constant": false,
      "inputs": [
        {
          "name": "_input",
          "type": "string"
        }
      ],
      "name": "testSolidityKeccak256FromString",
      "outputs": [],
      "payable": false,
      "stateMutability": "nonpayable",
      "type": "function"
    },
    {
      "constant": false,
      "inputs": [
        {
          "name": "_input",
          "type": "address"
        }
      ],
      "name": "testSolidityKeccak256FromAddress",
      "outputs": [],
      "payable": false,
      "stateMutability": "nonpayable",
      "type": "function"
    },
    {
      "constant": false,
      "inputs": [
        {
          "name": "_result",
          "type": "bytes32"
        }
      ],
      "name": "testSignedVote",
      "outputs": [],
      "payable": false,
      "stateMutability": "nonpayable",
      "type": "function"
    }
  ],
  "bytecode": "0x608060405234801561001057600080fd5b5061039f806100206000396000f3006080604052600436106100615763ffffffff7c0100000000000000000000000000000000000000000000000000000000600035041663040c9c6581146100665780634c4bc901146100c1578063b4b5cae9146100d9578063d29da48c146100f1575b600080fd5b34801561007257600080fd5b506040805160206004803580820135601f81018490048402850184019095528484526100bf94369492936024939284019190819084018382808284375094975061011f9650505050505050565b005b3480156100cd57600080fd5b506100bf60043561021a565b3480156100e557600080fd5b506100bf600435610265565b3480156100fd57600080fd5b506100bf73ffffffffffffffffffffffffffffffffffffffff60043516610303565b7f3f5e68e2b6822310a06a920b9b73daa30286bba2c001fa2133308e55a1d2820c816040518082805190602001908083835b602083106101705780518252601f199092019160209182019101610151565b51815160209384036101000a60001901801990921691161790526040805192909401829003822080835282820185815289519584019590955288519096508895509193925060608401919085019080838360005b838110156101dc5781810151838201526020016101c4565b50505050905090810190601f1680156102095780820380516001836020036101000a031916815260200191505b50935050505060405180910390a150565b60408051828152815190819003602090810182208252810183905281517f5f9b0066ef1432686f95afb566285f26646659039499219f4e8db0f462e88973929181900390910190a150565b604080518281528151602091819003820181203373ffffffffffffffffffffffffffffffffffffffff166c010000000000000000000000008102835284516014938190039390930183208618835284519283900384018320868452938301528184018190526060820183905292517f01477555f917271446523927e2e1e6172851347fc25430923a78abc27ef37e97916080908290030190a1505050565b604080516c0100000000000000000000000073ffffffffffffffffffffffffffffffffffffffff8416908102825282519182900360140182208252602082015281517fd44e9c0d833bb9a963228a03302f0599e829fc4c38a919695779a05c2f54fd4d929181900390910190a1505600a165627a7a723058207644b993b5f2f4c039c7a85bdb57efa2c3a2252d17606822759d9a94b4328a550029",
  "source": "pragma solidity ^0.4.21;\n\n\n//smart contract for testing purpose only\n\ncontract TestSha\n{\n\tevent SolidityKeccak256FromBytes  (bytes32 result, bytes32 input);\n\tevent SolidityKeccak256FromString (bytes32 result, string  input);\n\tevent SolidityKeccak256FromAddress(bytes32 result, address input);\n\n\tevent SignedVote(\n\t\tbytes32 input,\n\t\taddress voter,\n\t\tbytes32 vote,\n\t\tbytes32 sign\n\t);\n\n\tfunction testSolidityKeccak256FromBytes(bytes32 _input) public\n\t{\n\t\temit SolidityKeccak256FromBytes(keccak256(_input), _input);\n\t}\n\n\tfunction testSolidityKeccak256FromString(string _input) public\n\t{\n\t\temit SolidityKeccak256FromString(keccak256(_input), _input);\n\t}\n\n\tfunction testSolidityKeccak256FromAddress(address _input) public\n\t{\n\t\temit SolidityKeccak256FromAddress(keccak256(_input), _input);\n\t}\n\n\tfunction testSignedVote(bytes32 _result) public\n\t{\n\t\tbytes32 vote = keccak256(_result                        );\n\t\tbytes32 sign = keccak256(_result ^ keccak256(msg.sender));\n\t\temit SignedVote(_result, msg.sender, vote, sign);\n\t}\n}\n",
  "sourcePath": "/home/victor/code/github.com/iExecBlockchainComputing/PoCo/contracts/TestSha.sol",
  "compiler": {
    "name": "solc",
    "version": "0.4.23+commit.124ca40d.Emscripten.clang"
  },
  "schemaVersion": "2.0.0",
  "updatedAt": "2018-04-30T15:30:34.698Z"
}