{
  "contractName": "WorkerPoolHub",
  "abi": [
    {
      "constant": true,
      "inputs": [],
      "name": "m_owner",
      "outputs": [
        {
          "name": "",
          "type": "address"
        }
      ],
      "payable": false,
      "stateMutability": "view",
      "type": "function"
    },
    {
      "constant": false,
      "inputs": [
        {
          "name": "_newOwner",
          "type": "address"
        }
      ],
      "name": "transferOwnership",
      "outputs": [],
      "payable": false,
      "stateMutability": "nonpayable",
      "type": "function"
    },
    {
      "inputs": [],
      "payable": false,
      "stateMutability": "nonpayable",
      "type": "constructor"
    },
    {
      "anonymous": false,
      "inputs": [
        {
          "indexed": true,
          "name": "previousOwner",
          "type": "address"
        },
        {
          "indexed": true,
          "name": "newOwner",
          "type": "address"
        }
      ],
      "name": "OwnershipTransferred",
      "type": "event"
    },
    {
      "constant": true,
      "inputs": [
        {
          "name": "_workerPool",
          "type": "address"
        }
      ],
      "name": "isWorkerPoolRegistered",
      "outputs": [
        {
          "name": "",
          "type": "bool"
        }
      ],
      "payable": false,
      "stateMutability": "view",
      "type": "function"
    },
    {
      "constant": true,
      "inputs": [
        {
          "name": "_owner",
          "type": "address"
        }
      ],
      "name": "getWorkerPoolsCount",
      "outputs": [
        {
          "name": "",
          "type": "uint256"
        }
      ],
      "payable": false,
      "stateMutability": "view",
      "type": "function"
    },
    {
      "constant": true,
      "inputs": [
        {
          "name": "_owner",
          "type": "address"
        },
        {
          "name": "_index",
          "type": "uint256"
        }
      ],
      "name": "getWorkerPool",
      "outputs": [
        {
          "name": "",
          "type": "address"
        }
      ],
      "payable": false,
      "stateMutability": "view",
      "type": "function"
    },
    {
      "constant": true,
      "inputs": [
        {
          "name": "_worker",
          "type": "address"
        }
      ],
      "name": "getWorkerAffectation",
      "outputs": [
        {
          "name": "workerPool",
          "type": "address"
        }
      ],
      "payable": false,
      "stateMutability": "view",
      "type": "function"
    },
    {
      "constant": false,
      "inputs": [
        {
          "name": "_description",
          "type": "string"
        },
        {
          "name": "_subscriptionLockStakePolicy",
          "type": "uint256"
        },
        {
          "name": "_subscriptionMinimumStakePolicy",
          "type": "uint256"
        },
        {
          "name": "_subscriptionMinimumScorePolicy",
          "type": "uint256"
        },
        {
          "name": "_marketplaceAddress",
          "type": "address"
        }
      ],
      "name": "createWorkerPool",
      "outputs": [
        {
          "name": "createdWorkerPool",
          "type": "address"
        }
      ],
      "payable": false,
      "stateMutability": "nonpayable",
      "type": "function"
    },
    {
      "constant": false,
      "inputs": [
        {
          "name": "_workerPool",
          "type": "address"
        },
        {
          "name": "_worker",
          "type": "address"
        }
      ],
      "name": "registerWorkerAffectation",
      "outputs": [
        {
          "name": "subscribed",
          "type": "bool"
        }
      ],
      "payable": false,
      "stateMutability": "nonpayable",
      "type": "function"
    },
    {
      "constant": false,
      "inputs": [
        {
          "name": "_workerPool",
          "type": "address"
        },
        {
          "name": "_worker",
          "type": "address"
        }
      ],
      "name": "unregisterWorkerAffectation",
      "outputs": [
        {
          "name": "unsubscribed",
          "type": "bool"
        }
      ],
      "payable": false,
      "stateMutability": "nonpayable",
      "type": "function"
    }
  ],
  "bytecode": "0x608060405234801561001057600080fd5b5060008054600160a060020a033316600160a060020a0319909116179055613a0b8061003d6000396000f3006080604052600436106100985763ffffffff7c010000000000000000000000000000000000000000000000000000000060003504166301a08a8b811461009d5780630b00de8d146100dd5780631884c51714610118578063215bd3031461013f57806368c197dd1461017557806369bee8a114610196578063d440c6f3146101c9578063deff41c1146101ea578063f2fde38b146101ff575b600080fd5b3480156100a957600080fd5b506100c1600160a060020a0360043516602435610222565b60408051600160a060020a039092168252519081900360200190f35b3480156100e957600080fd5b50610104600160a060020a036004358116906024351661024a565b604080519115158252519081900360200190f35b34801561012457600080fd5b50610104600160a060020a03600435811690602435166102ca565b34801561014b57600080fd5b506100c1602460048035828101929101359035604435606435600160a060020a036084351661034e565b34801561018157600080fd5b50610104600160a060020a0360043516610400565b3480156101a257600080fd5b506101b7600160a060020a036004351661041e565b60408051918252519081900360200190f35b3480156101d557600080fd5b506100c1600160a060020a0360043516610439565b3480156101f657600080fd5b506100c1610457565b34801561020b57600080fd5b50610220600160a060020a0360043516610466565b005b600160a060020a03918216600090815260036020908152604080832093835292905220541690565b6000805433600160a060020a0390811691161461026657600080fd5b600160a060020a0382811660009081526001602052604090205481169084161461028f57600080fd5b50600160a060020a03166000908152600160208190526040909120805473ffffffffffffffffffffffffffffffffffffffff19169055919050565b6000805433600160a060020a039081169116146102e657600080fd5b600160a060020a03828116600090815260016020526040902054161561030b57600080fd5b50600160a060020a039081166000908152600160208190526040909120805473ffffffffffffffffffffffffffffffffffffffff19169390921692909217905590565b60008054819033600160a060020a0390811691161461036c57600080fd5b3388888888888861037b6105a7565b600160a060020a038089168252604082018690526060820185905260808201849052821660a082015260c06020820181815290820187905260e08201888880828437820191505098505050505050505050604051809103906000f0801580156103e8573d6000803e3d6000fd5b5090506103f532826104fe565b979650505050505050565b600160a060020a031660009081526004602052604090205460ff1690565b600160a060020a031660009081526002602052604090205490565b600160a060020a039081166000908152600160205260409020541690565b600054600160a060020a031681565b60005433600160a060020a0390811691161461048157600080fd5b600160a060020a038116151561049657600080fd5b60008054604051600160a060020a03808516939216917f8be0079c531659141344cd1fd0a4f28419497f9722a3daafe3b4186f6b6457e091a36000805473ffffffffffffffffffffffffffffffffffffffff1916600160a060020a0392909216919091179055565b600160a060020a03821660009081526002602052604081205461052890600163ffffffff61059116565b600160a060020a03938416600090815260026020908152604080832084905560038252808320938352928152828220805473ffffffffffffffffffffffffffffffffffffffff19169590961694851790955592835260049093525020805460ff19166001179055565b6000828201838110156105a057fe5b9392505050565b604051613428806105b883390190560060806040523480156200001157600080fd5b50604051620034283803806200342883398101604090815281516020830151918301516060840151608085015160a086015160008054600160a060020a03191633600160a060020a03908116919091179091559496959095019492939192909181908790811615156200008357600080fd5b60018054600160a060020a03928316600160a060020a0319918216811790925560028054909116909117905581161515620000bd57600080fd5b60038054600160a060020a03928316600160a060020a03199182168117909255600480549091169091179055328116339091161415620000fc57600080fd5b620001103264010000000062000160810204565b845162000125906005906020880190620001ed565b5050601e6006556001600755600892909255600955600a555050600f8054600160a060020a03191633600160a060020a031617905562000292565b60005433600160a060020a039081169116146200017c57600080fd5b600160a060020a03811615156200019257600080fd5b60008054604051600160a060020a03808516939216917f8be0079c531659141344cd1fd0a4f28419497f9722a3daafe3b4186f6b6457e091a360008054600160a060020a031916600160a060020a0392909216919091179055565b828054600181600116156101000203166002900490600052602060002090601f016020900481019282601f106200023057805160ff191683800117855562000260565b8280016001018555821562000260579182015b828111156200026057825182559160200191906001019062000243565b506200026e92915062000272565b5090565b6200028f91905b808211156200026e576000815560010162000279565b90565b61318680620002a26000396000f3006080604052600436106101a85763ffffffff60e060020a600035041663031ee1c881146101ad57806306021e7e146101f25780630c6e29e3146102e9578063126eac43146102fe57806316ebf77d146103725780631f1e7406146103965780632b8fd18a146104015780633ec6a4c41461043557806340f036051461045657806341cb01ad1461047d57806345b99d281461049e5780635a628525146104b35780636ab6936a146104d75780637919233f146104ec5780637bd220bb146105105780637c60988514610537578063835436b4146105a557806387639c68146105c657806389869163146105db5780638d7db2f7146105fc578063900b7b6214610686578063b32ca9c51461069e578063bb7fb08b146106b3578063c6c5b072146106d7578063c6ced32b146106ec578063cc6f06a314610701578063dc988b4014610716578063deff41c114610743578063e2d36ef514610758578063e653ec6a1461076d578063ec1847b614610782578063ef9cb474146107a3578063f20e56ec146107c6578063f2fde38b146107db578063f4efa24c146107fc578063ff266d261461081d575b600080fd5b3480156101b957600080fd5b506101e0600160a060020a036004351660243560443560ff6064351660843560a43561083e565b60408051918252519081900360200190f35b3480156101fe57600080fd5b5060408051602060046024803582810135601f81018590048502860185019096528585526102d5958335600160a060020a031695369560449491939091019190819084018382808284375050604080516020601f89358b018035918201839004830284018301909452808352979a99988101979196509182019450925082915084018382808284375050604080516020601f89358b018035918201839004830284018301909452808352979a999881019791965091820194509250829150840183828082843750949750610c469650505050505050565b604080519115158252519081900360200190f35b3480156102f557600080fd5b506102d56110f7565b34801561030a57600080fd5b50610325600160a060020a036004358116906024351661124c565b6040518087600481111561033557fe5b60ff168152602081019690965250604080860194909452600160a060020a039092166060850152608084015260a0830152519081900360c0019150f35b34801561037e57600080fd5b506102d5600160a060020a03600435166024356112c8565b3480156103a257600080fd5b506103b7600160a060020a0360043516611669565b604080519889526020890197909752878701959095526060870193909352608086019190915260a085015260c0840152600160a060020a031660e083015251908190036101000190f35b34801561040d57600080fd5b506104196004356116b5565b60408051600160a060020a039092168252519081900360200190f35b34801561044157600080fd5b506101e0600160a060020a03600435166116dd565b34801561046257600080fd5b506102d5600160a060020a03600435811690602435166116fb565b34801561048957600080fd5b506101e0600160a060020a036004351661173b565b3480156104aa57600080fd5b506101e061174d565b3480156104bf57600080fd5b506102d5600160a060020a0360043516602435611752565b3480156104e357600080fd5b506101e061193c565b3480156104f857600080fd5b506102d5600160a060020a0360043516602435611942565b34801561051c57600080fd5b50610325600160a060020a0360043581169060243516611c2e565b34801561054357600080fd5b506040805160206004602480358281013584810280870186019097528086526102d5968435600160a060020a03169636966044959194909101929182918501908490808284375094975050509235600160a060020a03169350611c7c92505050565b3480156105b157600080fd5b506102d5600160a060020a0360043516611ce7565b3480156105d257600080fd5b506101e0611df2565b3480156105e757600080fd5b506102d5600160a060020a0360043516611df8565b34801561060857600080fd5b50610611611fb8565b6040805160208082528351818301528351919283929083019185019080838360005b8381101561064b578181015183820152602001610633565b50505050905090810190601f1680156106785780820380516001836020036101000a031916815260200191505b509250505060405180910390f35b34801561069257600080fd5b50610419600435612046565b3480156106aa57600080fd5b50610419612072565b3480156106bf57600080fd5b50610419600160a060020a0360043516602435612081565b3480156106e357600080fd5b506101e06120c4565b3480156106f857600080fd5b506101e06120ca565b34801561070d57600080fd5b506101e06120d1565b34801561072257600080fd5b506102d5600160a060020a03600435811690602435811690604435166120d7565b34801561074f57600080fd5b5061041961231b565b34801561076457600080fd5b506101e061232a565b34801561077957600080fd5b506102d5612330565b34801561078e57600080fd5b506101e0600160a060020a0360043516612420565b3480156107af57600080fd5b506107c4600435602435604435606435612470565b005b3480156107d257600080fd5b506101e061251c565b3480156107e757600080fd5b506107c4600160a060020a0360043516612521565b34801561080857600080fd5b506103b7600160a060020a03600435166125b9565b34801561082957600080fd5b506102d5600160a060020a036004351661260b565b600160a060020a0386166000908152600d602052604081206005810154829042111561086957600080fd5b600189600160a060020a031663e329c4786040518163ffffffff1660e060020a028152600401602060405180830381600087803b1580156108a957600080fd5b505af11580156108bd573d6000803e3d6000fd5b505050506040513d60208110156108d357600080fd5b505160048111156108e057fe5b146108ea57600080fd5b50600160a060020a038089166000908152600e602090815260408083203390941683529290522087151561091d57600080fd5b86151561092957600080fd5b6003810154600160a060020a0316156109f857604080517f19457468657265756d205369676e6564204d6573736167653a0a3634000000008152601c81018a9052603c8101899052815190819003605c018120600080835260208381018086529290925260ff8a16838501526060830189905260808301889052925160019360a080850194601f198401939081900390910191865af11580156109d0573d6000803e3d6000fd5b5050604051601f1901516003830154600160a060020a0390811691161490506109f857600080fd5b6001815460ff166004811115610a0a57fe5b14610a1457600080fd5b805460ff1916600290811782556001820189905580820188905554604080517f8c0f8e1100000000000000000000000000000000000000000000000000000000815233600160a060020a03908116600483015291519190921691638c0f8e119160248083019260209291908290030181600087803b158015610a9557600080fd5b505af1158015610aa9573d6000803e3d6000fd5b505050506040513d6020811015610abf57600080fd5b81019080805190602001909291905050508160040181905550816007013390806001815401808255809150509060018203906000526020600020016000909192909190916101000a815481600160a060020a030219169083600160a060020a0316021790555050600260009054906101000a9004600160a060020a0316600160a060020a0316638981d0778a3385600101546040518463ffffffff1660e060020a0281526004018084600160a060020a0316600160a060020a0316815260200183600160a060020a0316600160a060020a031681526020018281526020019350505050602060405180830381600087803b158015610bbc57600080fd5b505af1158015610bd0573d6000803e3d6000fd5b505050506040513d6020811015610be657600080fd5b50511515610bf357600080fd5b604080518981529051600160a060020a0333811692908c16917f1593a9a000265660fd299c9f8c9bbacfeb4d428861542e6c44b68615324225d49181900360200190a35060010154979650505050505050565b60008054819033600160a060020a03908116911614610c6457600080fd5b50600160a060020a0385166000908152600d602052604090206005810154421115610c8e57600080fd5b42816003015411158015610ca6575060008160040154115b80610cb8575080600601548160040154145b1515610cc357600080fd5b60408051610120810182528254815260018301546020808301919091526002840154828401526003840154606083015260048401546080830152600584015460a0830152600684015460c0830152600784018054845181840281018401909552808552610d92948b9493879360e08601939091830182828015610d6f57602002820191906000526020600020905b8154600160a060020a03168152600190910190602001808311610d51575b505050918352505060089190910154600160a060020a03166020909101526127e0565b1515610d9d57600080fd5b6002546040517fb6b57ebd000000000000000000000000000000000000000000000000000000008152600160a060020a0388811660048301908152608060248401908152895160848501528951929094169363b6b57ebd938b938b938b938b93919290916044810191606482019160a40190602089019080838360005b83811015610e32578181015183820152602001610e1a565b50505050905090810190601f168015610e5f5780820380516001836020036101000a031916815260200191505b50848103835286518152865160209182019188019080838360005b83811015610e92578181015183820152602001610e7a565b50505050905090810190601f168015610ebf5780820380516001836020036101000a031916815260200191505b50848103825285518152855160209182019187019080838360005b83811015610ef2578181015183820152602001610eda565b50505050905090810190601f168015610f1f5780820380516001836020036101000a031916815260200191505b50975050505050505050602060405180830381600087803b158015610f4357600080fd5b505af1158015610f57573d6000803e3d6000fd5b505050506040513d6020811015610f6d57600080fd5b50511515610f7a57600080fd5b85600160a060020a03167f4bfecaabd22e1b95e9aa9eb161b19f645b3460e7533d5e0f6349faf8dc0a724486868660405180806020018060200180602001848103845287818151815260200191508051906020019080838360005b83811015610fed578181015183820152602001610fd5565b50505050905090810190601f16801561101a5780820380516001836020036101000a031916815260200191505b50848103835286518152865160209182019188019080838360005b8381101561104d578181015183820152602001611035565b50505050905090810190601f16801561107a5780820380516001836020036101000a031916815260200191505b50848103825285518152855160209182019187019080838360005b838110156110ad578181015183820152602001611095565b50505050905090810190601f1680156110da5780820380516001836020036101000a031916815260200191505b50965050505050505060405180910390a250600195945050505050565b600254604080517fb218cf15000000000000000000000000000000000000000000000000000000008152600160a060020a03338116600483015291516000938493169163b218cf1591602480830192602092919082900301818787803b15801561116057600080fd5b505af1158015611174573d6000803e3d6000fd5b505050506040513d602081101561118a57600080fd5b5051151561119757600080fd5b50600b805460018082018084556000939093527f0175b7a638427703f0dbe7bb9bbf987a2551717b34e79f33b5b1008d1fa01db9909101805473ffffffffffffffffffffffffffffffffffffffff191633600160a060020a03161790556111ff908290612d76565b600160a060020a0333166000818152600c602052604080822093909355915190917f67799bb3ec4a3491a0c1c4e6d02ec99927df7ba7fa268c216672c0c5ecc1e8f891a2600191505b5090565b600080600080600080600061126189896116fb565b151561126c57600080fd5b50505050600160a060020a039485166000908152600e602090815260408083209688168352959052939093208054600182015460028301546003840154600485015460059095015460ff90941699929891975016945091925090565b6000805481908190819033600160a060020a039081169116146112ea57600080fd5b600160a060020a0386166000908152600d60205260409020600581015490935042111561131657600080fd5b85600160a060020a0316632d4d671f6040518163ffffffff1660e060020a028152600401602060405180830381600087803b15801561135457600080fd5b505af1158015611368573d6000803e3d6000fd5b505050506040513d602081101561137e57600080fd5b5051151561138b57600080fd5b60006006840181905591505b600783015482101561145757600783018054839081106113b357fe5b6000918252602080832090910154600160a060020a038981168452600e83526040808520919092168085529252909120600101549091508514801561142b57506002600160a060020a038088166000908152600e602090815260408083209386168352929052205460ff16600481111561142957fe5b145b1561144c57600683015461144690600163ffffffff612d8816565b60068401555b816001019150611397565b600683015460001061146857600080fd5b848360020181600019169055506116194261160d60028060009054906101000a9004600160a060020a0316600160a060020a0316631f871726600460009054906101000a9004600160a060020a0316600160a060020a0316634cfddcfb8d600160a060020a031663ecc40f646040518163ffffffff1660e060020a028152600401602060405180830381600087803b15801561150357600080fd5b505af1158015611517573d6000803e3d6000fd5b505050506040513d602081101561152d57600080fd5b50516040805160e060020a63ffffffff851602815260048101929092525160248083019260209291908290030181600087803b15801561156c57600080fd5b505af1158015611580573d6000803e3d6000fd5b505050506040513d602081101561159657600080fd5b50516040805160e060020a63ffffffff851602815260048101929092525160248083019260209291908290030181600087803b1580156115d557600080fd5b505af11580156115e9573d6000803e3d6000fd5b505050506040513d60208110156115ff57600080fd5b50519063ffffffff612da216565b9063ffffffff612d8816565b6003840155604080518681529051600160a060020a038816917fa1b9f527f9799a46d54103401c99dc62f3744afe1d095a1c53620758dc38b286919081900360200190a250600195945050505050565b600d6020526000908152604090208054600182015460028301546003840154600485015460058601546006870154600890970154959694959394929391929091600160a060020a031688565b600b8054829081106116c357fe5b600091825260209091200154600160a060020a0316905081565b600160a060020a03166000908152600d602052604090206007015490565b600080600160a060020a038085166000908152600e602090815260408083209387168352929052205460ff16600481111561173257fe5b14159392505050565b600c6020526000908152604090205481565b600a81565b600160a060020a0382166000908152600d602052604081206005810154829042111561177d57600080fd5b50600160a060020a038085166000908152600e6020908152604080832033909416835292905220600285600160a060020a031663e329c4786040518163ffffffff1660e060020a028152600401602060405180830381600087803b1580156117e457600080fd5b505af11580156117f8573d6000803e3d6000fd5b505050506040513d602081101561180e57600080fd5b5051600481111561181b57fe5b1461182557600080fd5b6003820154421061183557600080fd5b6002815460ff16600481111561184757fe5b1461185157600080fd5b600282015460018201541461186557600080fd5b60408051858152905190819003602001902060018201541461188657600080fd5b604080516c01000000000000000000000000600160a060020a03331602815281519081900360140181208618815290519081900360200190206002820154146118ce57600080fd5b805460ff1916600317815560048201546118e9906001612d88565b6004830155604080518581529051600160a060020a0333811692908816917f4f5df7005a83b6f11e90ead1268eb534656169a5034e8d239c763471294be3d59181900360200190a3506001949350505050565b60095481565b60015460009081908190819033600160a060020a0390811691161461196657600080fd5b60048054604080517f4cfddcfb00000000000000000000000000000000000000000000000000000000815292830188905251600160a060020a0390911691634cfddcfb9160248083019260209291908290030181600087803b1580156119cb57600080fd5b505af11580156119df573d6000803e3d6000fd5b505050506040513d60208110156119f557600080fd5b5051600254604080517f1f871726000000000000000000000000000000000000000000000000000000008152600481018490529051929550611a6e92429261160d92600a92600160a060020a0390921691631f871726916024808201926020929091908290030181600087803b1580156115d557600080fd5b600160a060020a038088166000908152600d602090815260408083206004805483517f38c4090b0000000000000000000000000000000000000000000000000000000081529182018d905292519698509096509316936338c4090b93602480820194918390030190829087803b158015611ae757600080fd5b505af1158015611afb573d6000803e3d6000fd5b505050506040513d6020811015611b1157600080fd5b5051815560048054604080517f55d66c3e00000000000000000000000000000000000000000000000000000000815292830188905251600160a060020a03909116916355d66c3e9160248083019260209291908290030181600087803b158015611b7a57600080fd5b505af1158015611b8e573d6000803e3d6000fd5b505050506040513d6020811015611ba457600080fd5b505160088201805473ffffffffffffffffffffffffffffffffffffffff1916600160a060020a039092169190911790556006548154611be291612dcd565b600182015560058101829055604051600160a060020a038716907f9c081174ce28e85a62530b1102b0df58428b8da5027e81fbb4984aa1dc03310790600090a250600195945050505050565b600e60209081526000928352604080842090915290825290208054600182015460028301546003840154600485015460059095015460ff9094169492939192600160a060020a039091169186565b60008054819033600160a060020a03908116911614611c9a57600080fd5b5060005b8351811015611cdc57611cc9858583815181101515611cb957fe5b90602001906020020151856120d7565b1515611cd457600080fd5b600101611c9e565b506001949350505050565b6000805433600160a060020a03908116911614611d0357600080fd5b600254604080517f835436b4000000000000000000000000000000000000000000000000000000008152600160a060020a0385811660048301529151919092169163835436b49160248083019260209291908290030181600087803b158015611d6b57600080fd5b505af1158015611d7f573d6000803e3d6000fd5b505050506040513d6020811015611d9557600080fd5b50511515611da257600080fd5b611dab82612de2565b1515611db657600080fd5b604051600160a060020a038316907fb22288215ec8cbd28148d7ffa053c6e6e23c62b58d0eb71a6387b59fad33a01990600090a2506001919050565b60075481565b60015460009081908190819033600160a060020a03908116911614611e1c57600080fd5b600160a060020a0385166000908152600d6020526040902060058101549093504211611e4757600080fd5b600091505b6007830154821015611f795760078301805483908110611e6857fe5b600091825260209091200154600160a060020a031690506001600160a060020a038087166000908152600e602090815260408083209386168352929052205460ff166004811115611eb557fe5b14611f6e576002546001840154604080517f6b4f6865000000000000000000000000000000000000000000000000000000008152600160a060020a0389811660048301528581166024830152604482019390935290519190921691636b4f68659160648083019260209291908290030181600087803b158015611f3757600080fd5b505af1158015611f4b573d6000803e3d6000fd5b505050506040513d6020811015611f6157600080fd5b50511515611f6e57600080fd5b816001019150611e4c565b604051600160a060020a038616907f8d8d47a5d5034ce9c01a2308543fdaa83d60863e4b735b7d57361987cdc8ed9490600090a2506001949350505050565b6005805460408051602060026001851615610100026000190190941693909304601f8101849004840282018401909252818152929183018282801561203e5780601f106120135761010080835404028352916020019161203e565b820191906000526020600020905b81548152906001019060200180831161202157829003601f168201915b505050505081565b6000600b8281548110151561205757fe5b600091825260209091200154600160a060020a031692915050565b600f54600160a060020a031681565b600160a060020a0382166000908152600d602052604081206007018054839081106120a857fe5b600091825260209091200154600160a060020a03169392505050565b60065481565b600b545b90565b600a5481565b60008054819081908190819033600160a060020a039081169116146120fb57600080fd5b600188600160a060020a031663e329c4786040518163ffffffff1660e060020a028152600401602060405180830381600087803b15801561213b57600080fd5b505af115801561214f573d6000803e3d6000fd5b505050506040513d602081101561216557600080fd5b5051600481111561217257fe5b1461217c57600080fd5b600160a060020a038089166000818152600e60209081526040808320948c168352938152838220928252600d905291909120600581015491955093504211156121c457600080fd5b600254604080517ff69f190c000000000000000000000000000000000000000000000000000000008152600160a060020a038a81166004830152825193169263f69f190c926024808401939192918290030181600087803b15801561222857600080fd5b505af115801561223c573d6000803e3d6000fd5b505050506040513d604081101561225257600080fd5b508051602090910151909250905030600160a060020a039081169083161461227957600080fd5b6000845460ff16600481111561228b57fe5b1461229557600080fd5b835460ff1916600117845560038401805473ffffffffffffffffffffffffffffffffffffffff1916600160a060020a0388811691909117909155604080518381529051898316928b16917f9cade22a92ceb705fefd1c03e9ac4dbbf787cd493ec63a9f2b078cbc859c0629916020918190039190910190a3506001979650505050505050565b600054600160a060020a031681565b60085481565b600254604080517f1708d725000000000000000000000000000000000000000000000000000000008152600160a060020a03338116600483015291516000939290921691631708d7259160248082019260209290919082900301818787803b15801561239b57600080fd5b505af11580156123af573d6000803e3d6000fd5b505050506040513d60208110156123c557600080fd5b505115156123d257600080fd5b6123db33612de2565b15156123e657600080fd5b604051600160a060020a033316907fd08d61a9c25ada3385d23554bae10e5d15c9518d4bfd27571c190558f7030f6e90600090a250600190565b600160a060020a0381166000818152600c6020526040812054600b8054929391928390811061244b57fe5b600091825260209091200154600160a060020a03161461246a57600080fd5b92915050565b60005433600160a060020a0390811691161461248b57600080fd5b600654600754600954600a5460408051948552602085018990528481019390935260608401879052608084019190915260a0830185905260c083015260e08201839052517f52bb55d3097463659f724f9b420d259719787a8563b48eb82368680999bfea07918190036101000190a1606483111561250857600080fd5b600693909355600791909155600955600a55565b600281565b60005433600160a060020a0390811691161461253c57600080fd5b600160a060020a038116151561255157600080fd5b60008054604051600160a060020a03808516939216917f8be0079c531659141344cd1fd0a4f28419497f9722a3daafe3b4186f6b6457e091a36000805473ffffffffffffffffffffffffffffffffffffffff1916600160a060020a0392909216919091179055565b600160a060020a039081166000908152600d6020526040902080546001820154600283015460038401546004850154600586015460068701546008909701549598949793969295919490939190911690565b6000805481908190819033600160a060020a0390811691161461262d57600080fd5b600160a060020a0385166000908152600d60205260409020600581015490935042111561265957600080fd5b4283600301541115801561266f57506004830154155b151561267a57600080fd5b84600160a060020a0316631a514d976040518163ffffffff1660e060020a028152600401602060405180830381600087803b1580156126b857600080fd5b505af11580156126cc573d6000803e3d6000fd5b505050506040513d60208110156126e257600080fd5b505115156126ef57600080fd5b600091505b600783015482101561278d576007830180548390811061271057fe5b60009182526020808320909101546002860154600160a060020a038981168552600e84526040808620919093168086529352922060010154909250141561278257600160a060020a038581166000908152600e60209081526040808320938516835292905220805460ff191660041790555b8160010191506126f4565b6000600684018190556002840181905560038401819055604051600160a060020a038716917f631055693b4cbe13143279bc507432c42de858b6d04b3ba4e1ff3d2c88a7e52b91a2506001949350505050565b805160e08201516000918291829182918291829182919082805b82518a101561291357828a81518110151561281157fe5b906020019060200201519850600e60008e600160a060020a0316600160a060020a0316815260200190815260200160002060008a600160a060020a0316600160a060020a0316815260200190815260200160002091506003600481111561287457fe5b825460ff16600481111561288457fe5b14156128ef576003820154600160a060020a031615156128a55760016128a8565b60035b60ff1697506128cc6128c7898460040154612da290919063ffffffff16565b612ee0565b60010196506128e1868863ffffffff612d8816565b600583018890559550612908565b60208c015161290590859063ffffffff612d8816565b93505b8960010199506127fa565b6000861161292057600080fd5b6129466129396007546064612d7690919063ffffffff16565b859063ffffffff612dcd16565b9050600099505b82518a1015612c8857828a81518110151561296457fe5b6020908102909101015198506003600160a060020a03808f166000908152600e60209081526040808320938e168352929052205460ff1660048111156129a657fe5b1415612ba357600160a060020a03808e166000908152600e60209081526040808320938d16835292905220600501546129e79082908863ffffffff6130e316565b94506129f9848663ffffffff612d7616565b9350600260009054906101000a9004600160a060020a0316600160a060020a0316636b4f68658e8b8f602001516040518463ffffffff1660e060020a0281526004018084600160a060020a0316600160a060020a0316815260200183600160a060020a0316600160a060020a031681526020018281526020019350505050602060405180830381600087803b158015612a9157600080fd5b505af1158015612aa5573d6000803e3d6000fd5b505050506040513d6020811015612abb57600080fd5b50511515612ac857600080fd5b600260009054906101000a9004600160a060020a0316600160a060020a0316630c91f2d08e8b8860016040518563ffffffff1660e060020a0281526004018085600160a060020a0316600160a060020a0316815260200184600160a060020a0316600160a060020a0316815260200183815260200182151515158152602001945050505050602060405180830381600087803b158015612b6757600080fd5b505af1158015612b7b573d6000803e3d6000fd5b505050506040513d6020811015612b9157600080fd5b50511515612b9e57600080fd5b612c7d565b600260009054906101000a9004600160a060020a0316600160a060020a0316639fdf96258e8b8f6020015160016040518563ffffffff1660e060020a0281526004018085600160a060020a0316600160a060020a0316815260200184600160a060020a0316600160a060020a0316815260200183815260200182151515158152602001945050505050602060405180830381600087803b158015612c4657600080fd5b505af1158015612c5a573d6000803e3d6000fd5b505050506040513d6020811015612c7057600080fd5b50511515612c7d57600080fd5b89600101995061294d565b600260009054906101000a9004600160a060020a0316600160a060020a0316630c91f2d08e8e61010001518760006040518563ffffffff1660e060020a0281526004018085600160a060020a0316600160a060020a0316815260200184600160a060020a0316600160a060020a0316815260200183815260200182151515158152602001945050505050602060405180830381600087803b158015612d2c57600080fd5b505af1158015612d40573d6000803e3d6000fd5b505050506040513d6020811015612d5657600080fd5b50511515612d6357600080fd5b5060019c9b505050505050505050505050565b600082821115612d8257fe5b50900390565b600082820183811015612d9757fe5b8091505b5092915050565b600080831515612db55760009150612d9b565b50828202828482811515612dc557fe5b0414612d9757fe5b6000612ddb838360646130e3565b9392505050565b6000806000612df084612420565b600b805491935090612e0990600163ffffffff612d7616565b81548110612e1357fe5b600091825260209091200154600b8054600160a060020a039092169250829184908110612e3c57fe5b6000918252602080832091909101805473ffffffffffffffffffffffffffffffffffffffff1916600160a060020a039485161790559183168152600c90915260409020829055600b8054612e91906001612d76565b81548110612e9b57fe5b6000918252602090912001805473ffffffffffffffffffffffffffffffffffffffff19169055600b54612ed590600163ffffffff612d7616565b611cdc600b82613117565b604080517ff8f9cbfae6cc78fbefe7cdc3a1793dfcf4f0e8bbd8cec470b6a28a7a5a3e1efd81527ff5ecf1b3e9debc68e1d9cfabc5997135bfb7a7a3938b7b606b5b4b3f2f1f0ffe60208201527ff6e4ed9ff2d6b458eadcdf97bd91692de2d4da8fd2d0ac50c6ae9a8272523616818301527fc8c0b887b0a8a4489c948c7f847c6125746c645c544c444038302820181008ff60608201527ff7cae577eec2a03cf3bad76fb589591debb2dd67e0aa9834bea6925f6a4a2e0e60808201527fe39ed557db96902cd38ed14fad815115c786af479b7e8324736353433727170760a08201527fc976c13bb96e881cb166a933a55e490d9d56952b8d4e801485467d236242260660c08201527f753a6d1b65325d0c552a4d1345224105391a310b29122104190a11030902010060e08201526101008082019092527f0100000000000000000000000000000000000000000000000000000000000000600170010000000000000000000000000000000068010000000000000000640100000000620100006010600460026000198c019081041790810417908104178881041790810417908104179081041790810417017e818283848586878898a8b8c8d8e8f929395969799a9b9d9e9faaeb6bedeeff0281900460ff0390910151047f8000000000000000000000000000000000000000000000000000000000000000909211020190565b60006130f86130f28585612da2565b83613100565b949350505050565b600080828481151561310e57fe5b04949350505050565b81548183558181111561313b5760008381526020902061313b918101908301613140565b505050565b6120ce91905b8082111561124857600081556001016131465600a165627a7a723058200654556f3dc7e53b39964f2e1c813e8645c31a7df50e50a3501d32c59c4d2eba0029a165627a7a72305820a74ac3729b9e9fc3acd4d228b9893d88f5ef7a768db9d783f3afd1074de74d370029",
  "source": "pragma solidity ^0.4.21;\n\nimport './WorkerPool.sol';\nimport \"./OwnableOZ.sol\";\nimport \"./SafeMathOZ.sol\";\n\ncontract WorkerPoolHub is OwnableOZ // is Owned by IexecHub\n{\n\n\tusing SafeMathOZ for uint256;\n\n\t/**\n\t * Members\n\t */\n\t// worker => workerPool\n\tmapping(address => address)                     m_workerAffectation;\n\t// owner => index\n\tmapping(address => uint256)                     m_workerPoolCountByOwner;\n\t// owner => index => workerPool\n\tmapping(address => mapping(uint256 => address)) m_workerPoolByOwnerByIndex;\n\t//  workerPool => owner // stored in the workerPool\n\t/* mapping(address => address)                     m_ownerByWorkerPool; */\n\tmapping(address => bool)                        m_workerPoolRegistered;\n\n\t/**\n\t * Constructor\n\t */\n\tfunction WorkerPoolHub() public\n\t{\n\t}\n\n\t/**\n\t * Methods\n\t */\n\tfunction isWorkerPoolRegistered(address _workerPool) public view returns (bool)\n\t{\n\t\treturn m_workerPoolRegistered[_workerPool];\n\t}\n\tfunction getWorkerPoolsCount(address _owner) public view returns (uint256)\n\t{\n\t\treturn m_workerPoolCountByOwner[_owner];\n\t}\n\tfunction getWorkerPool(address _owner, uint256 _index) public view returns (address)\n\t{\n\t\treturn m_workerPoolByOwnerByIndex[_owner][_index];\n\t}\n\tfunction getWorkerAffectation(address _worker) public view returns (address workerPool)\n\t{\n\t\treturn m_workerAffectation[_worker];\n\t}\n\n\tfunction addWorkerPool(address _owner, address _workerPool) internal\n\t{\n\t\tuint id = m_workerPoolCountByOwner[_owner].add(1);\n\t\tm_workerPoolCountByOwner  [_owner]      = id;\n\t\tm_workerPoolByOwnerByIndex[_owner][id]  = _workerPool;\n\t\tm_workerPoolRegistered    [_workerPool] = true;\n\t}\n\n\tfunction createWorkerPool(\n\t\tstring _description,\n\t\tuint256 _subscriptionLockStakePolicy,\n\t\tuint256 _subscriptionMinimumStakePolicy,\n\t\tuint256 _subscriptionMinimumScorePolicy,\n\t\taddress _marketplaceAddress)\n\texternal onlyOwner /*owner == IexecHub*/ returns (address createdWorkerPool)\n\t{\n\t\t// tx.origin == owner\n\t\t// msg.sender == IexecHub\n\t\t// At creating ownership is transfered to tx.origin\n\t\taddress newWorkerPool = new WorkerPool(\n\t\t\tmsg.sender, // iexecHubAddress\n\t\t\t_description,\n\t\t\t_subscriptionLockStakePolicy,\n\t\t\t_subscriptionMinimumStakePolicy,\n\t\t\t_subscriptionMinimumScorePolicy,\n\t\t\t_marketplaceAddress\n\t\t);\n\t\taddWorkerPool(tx.origin, newWorkerPool);\n\t\treturn newWorkerPool;\n\t}\n\n\tfunction registerWorkerAffectation(address _workerPool, address _worker) public onlyOwner /*owner == IexecHub*/ returns (bool subscribed)\n\t{\n\t\t// you must have no cuurent affectation on others worker Pool\n\t\trequire(m_workerAffectation[_worker] == address(0));\n\t\tm_workerAffectation[_worker] = _workerPool;\n\t\treturn true;\n\t}\n\n\tfunction unregisterWorkerAffectation(address _workerPool, address _worker) public onlyOwner /*owner == IexecHub*/ returns (bool unsubscribed)\n\t{\n\t\trequire(m_workerAffectation[_worker] == _workerPool);\n\t\tm_workerAffectation[_worker] = address(0);\n\t\treturn true;\n\t}\n}\n",
  "sourcePath": "/home/victor/code/github.com/iExecBlockchainComputing/PoCo/contracts/WorkerPoolHub.sol",
  "compiler": {
    "name": "solc",
    "version": "0.4.23+commit.124ca40d.Emscripten.clang"
  },
  "schemaVersion": "2.0.0",
  "updatedAt": "2018-04-30T15:30:34.709Z"
}